:020000040000FA
:06000000DDEF36F01200F6
:08000800F2A402D0E8EF2DF094
:100010009EA002D062EF2EF09EAA02D041EF2CF0FB
:080020001200D08EF28E1200D6
:06003A000C001370000031
:10004000260500000800000008700000E80100001C
:100050000B00000007700000FF010000010000001D
:10006000E06F0000D303000027000000D06F000005
:10007000D801000010000000AA6F00000005000079
:10008000260000009B6F0000460300000F000000E8
:10009000556F000000030000460000009F6E000046
:1000A00000010000B60000008E6E00000004000099
:1000B00011000000866E000011040000080000001E
:0C00C000086E0000550300007E000000E8
:0400CC00D9CFE6FFA3
:1000D000E1CFD9FFE652FE0EDBCFE6FF010EF36E55
:1000E000FD0EDB5004E0D890F336E806FCE1F35057
:1000F000E552E71402E0010E01D0000EDF6EDF5082
:1001000000D0E552E552E7CFD9FF1200D9CFE6FF84
:10011000E1CFD9FF010EF36EFC0EDB5004E0D89066
:10012000F336E806FCE1F350146EFD0EDBCFE9FF79
:10013000FE0EDBCFEAFF1450EF12E552E7CFD9FFF6
:100140001200D9CFE6FFE1CFD9FF010EF36EFC0E0E
:10015000DB5004E0D890F336E806FCE1F350E81CED
:10016000146EFD0EDBCFE9FFFE0EDBCFEAFF14506D
:10017000EF16E552E7CFD9FF1200D9CFE6FFE1CF66
:10018000D9FF030EE126DF6A010EDF5C01E31ED119
:10019000DF28E66EDF50B50DF3CFE9FFF4CFEAFFBD
:1001A000000EE926010EEA22E552E750EF6EDF501D
:1001B000B50DF3CFE9FFF4CFEAFF000EE926010EFB
:1001C000EA22EE52EF6ADF50B50DF3CFE9FFF4CF2C
:1001D000EAFF000EE926010EEA22030EE926000ED0
:1001E000EA22EE6AED6ADF50B50DF3CFE9FFF4CFF6
:1001F000EAFF000EE926010EEA22050EE926000EAE
:10020000EA22EF6ADF50B50DF3CFE9FFF4CFEAFF42
:10021000000EE926010EEA22060EE926000EEA2269
:10022000EF6ADF50B50DF3CFE9FFF4CFEAFF000E20
:10023000E926010EEA22090EE926000EEA22EF6AFB
:10024000DF50B50DF3CFE9FFF4CFEAFF000EE9264A
:10025000010EEA220A0EE926000EEA22EF6ADF50BA
:10026000B50DF3CFE9FFF4CFEAFF000EE926010E4A
:10027000EA22070EE926000EEA22EF6ADF50B50DEA
:10028000F3CFE9FFF4CFEAFF000EE926010EEA22E0
:100290000B0EE926000EEA22EF6ADF50B50DF3CF10
:1002A000E9FFF4CFEAFF000EE926010EEA220C0E68
:1002B000E926000EEA22EF6ADF50B50DF3CFE9FF21
:1002C000F4CFEAFF000EE926010EEA22080EE92625
:1002D000000EEA22EF6ADF50B50DF3CFE9FFF4CF4D
:1002E000EAFF000EE926010EEA22020EE926000EC0
:1002F000EA22EF6ADE52380EDD6E010EDBCFE6FF3A
:10030000E66AE66ADF50B50DF3CFE9FFF4CFEAFF06
:10031000000EE926010EEA227D0EE926000EEA22F1
:10032000E9CF14F0EACF15F014C0E6FF15C0E6FFE0
:100330006AEC34F0166E050EE15E1650010EDBCF4E
:10034000E6FFE66AE66ADF50B50DF3CFE9FFF4CFCA
:10035000EAFF000EE926010EEA220D0EE926000E44
:10036000EA22E9CF14F0EACF15F014C0E6FF15C079
:10037000E6FF6AEC34F0166E050EE15E1650010ED3
:10038000DBCFE6FFE66AE66ADF50B50DF3CFE9FFA3
:10039000F4CFEAFF000EE926010EEA220D0EE9264F
:1003A000000EEA22E9CF14F0EACF15F0380E142639
:1003B000000E152214C0E6FF15C0E6FF6AEC34F00B
:1003C000166E050EE15E1650DF2ADED6030EE15CE6
:1003D00002E2E16AE552E16EE552E7CFD9FF120091
:1003E000D9CFE6FFE1CFD9FF070EE126010EF36E6C
:1003F000FE0EDBCFF4FFF350F45C1EE2FC0EDBCF0D
:10040000E9FFFD0EDBCFEAFFEF50146E156AD890BE
:10041000155004E6800E145C000E15580DE2FC0E1B
:10042000DBCFE9FFFD0EDBCFEAFF020EE926000E6F
:10043000EA22EE50ED1002E1000EEFD3FE0EDB508B
:10044000B50DF3CFE9FFF4CFEAFF000EE926010E68
:10045000EA22EE52E9CF14F0EACF15F0050E14C0EF
:10046000DBFF060E15C0DBFFFC0EDBCFE9FFFD0E48
:10047000DBCFEAFFEECF14F0EECF15F0EECF16F0A3
:10048000EECF17F0EECF18F0EFCF19F0050EDBCF5F
:10049000E9FF060EDBCFEAFF14C0EEFF15C0EEFF4A
:1004A00016C0EEFF17C0EEFF18C0EEFF19C0EEFF3A
:1004B000FE0EDB50B50DF3CFE9FFF4CFEAFF000EDF
:1004C000E926010EEA22060EE926000EEA22EF5086
:1004D000E66EFE0EDB50B50DF3CFE9FFF4CFEAFF79
:1004E000000EE926010EEA22070EE926000EEA2296
:1004F000E552E750EF6E380EDF6EDFCFE6FFE66ABB
:10050000E66AFE0EDB50B50DF3CFE9FFF4CFEAFF4C
:10051000000EE926010EEA227D0EE926000EEA22EF
:10052000E9CF14F0EACF15F014C0E6FF15C0E6FFDE
:100530006AEC34F0166E050EE15E1650DFCFE6FF72
:10054000E66AE66AFE0EDB50B50DF3CFE9FFF4CFA5
:10055000EAFF000EE926010EEA220D0EE926000E42
:10056000EA22E9CF14F0EACF15F014C0E6FF15C077
:10057000E6FF6AEC34F0166E050EE15E1650DFCF32
:10058000E6FFE66AE66AFE0EDB50B50DF3CFE9FF43
:10059000F4CFEAFF000EE926010EEA220D0EE9264D
:1005A000000EEA22E9CF14F0EACF15F0380E142637
:1005B000000E152214C0E6FF15C0E6FF6AEC34F009
:1005C000166E050EE15E1650FE0EDB50B50DF3CF34
:1005D000E9FFF4CFEAFF000EE926010EEA22060E3B
:1005E000E926000EEA22EF5001E083D1FE0EDB5037
:1005F000B50DF3CFE9FFF4CFEAFF000EE926010EB7
:10060000EA22080EE926000EEA22EF6ADF6AFE0EF1
:10061000DB50B50DF3CFE9FFF4CFEAFF000EE9267A
:10062000010EEA22020EE926000EEA22EF50DF5CFC
:1006300001E35ED1FE0EDB50B50DF3CFE9FFF4CF41
:10064000EAFF000EE926010EEA22080EE926000E56
:10065000EA22EF50EF2A146E156AFE0EDB50B50D3C
:10066000F3CFE9FFF4CFEAFF000EE926010EEA22FC
:10067000030EE926000EEA221450EE24E76E155010
:10068000EE20EA6EE7CFE9FFEF50E00FE76E040ED1
:10069000E7CFDBFFDBCF14F014340EE2040EDBCF28
:1006A00015F0630EE76E1518E8AE02D0153403D0CE
:1006B000E750D880155402E2040EDB6AFE0EDB50D0
:1006C000B50DF3CFE9FFF4CFEAFF000EE926010EE6
:1006D000EA22080EE926000EEA22EFCF14F0FE0E01
:1006E000DB50B50DF3CFE9FFF4CFEAFF000EE926AA
:1006F000010EEA22050EE926000EEA22EF50145CF4
:1007000010E3FE0EDB50B50DF3CFE9FFF4CFEAFFA7
:10071000000EE926010EEA22080EE926000EEA2262
:10072000EF6A010EDB6A070EF36E010EDBCFF4FFFA
:10073000F350F45C01E3DAD0040EDBCF18F0196A51
:1007400018BE1968030ED89018361936E806FBE172
:10075000CA0E1826540E1922010EDB500F01182460
:10076000F66E000E1920F76E0800F550E66EFE0ECC
:10077000DB50B50DF3CFE9FFF4CFEAFF000EE92619
:10078000010EEA227D0EE926000EEA22E9CF16F0DC
:10079000EACF17F0010EDB50080D1650F324146E4B
:1007A0001750F420156EDF500F011424E96E000E6F
:1007B0001520EA6EE552E750EF6EFE0EDB50B50DE8
:1007C000F3CFE9FFF4CFEAFF000EE926010EEA229B
:1007D0007D0EE926000EEA22E9CF1AF0EACF1BF0DF
:1007E000010EDB50080D1A50F324186E1B50F42034
:1007F000196EDF501824E96E000E1920EA6EEF50D2
:10080000E66EFE0EDB50B50DF3CFE9FFF4CFEAFF45
:10081000000EE926010EEA220D0EE926000EEA225C
:10082000E9CF16F0EACF17F0010EDB50080D165095
:10083000F324146E1750F420156EDF501424E96E63
:10084000000E1520EA6EE552E750EF6EFE0EDB500B
:10085000B50DF3CFE9FFF4CFEAFF000EE926010E54
:10086000EA227D0EE926000EEA22E9CF1AF0EACF4D
:100870001BF0010EDB50080D1A50F324186E1B50AC
:10088000F420196EDF501824E96E000E1920EA6E6C
:10089000EF50E66EFE0EDB50B50DF3CFE9FFF4CF5F
:1008A000EAFF000EE926010EEA220D0EE926000EEF
:1008B000EA22E9CF16F0EACF17F0380E1626000E1E
:1008C0001722010EDB50080D1650F324146E17503A
:1008D000F420156EDF501424E96E000E1520EA6E28
:1008E000E552E750EF6E010EDB2A1DD7DF2A8FD6C7
:1008F00082D1FE0EDB50B50DF3CFE9FFF4CFEAFF56
:10090000000EE926010EEA22080EE926000EEA2270
:10091000EF6ADF6AFE0EDB50B50DF3CFE9FFF4CFCF
:10092000EAFF000EE926010EEA22020EE926000E79
:10093000EA22EF50DF5C01E35ED1FE0EDB50B50D25
:10094000F3CFE9FFF4CFEAFF000EE926010EEA2219
:10095000080EE926000EEA22EF50EF2A146E156AFF
:10096000FE0EDB50B50DF3CFE9FFF4CFEAFF000E2A
:10097000E926010EEA22030EE926000EEA221450AF
:10098000EE24E76E1550EE20EA6EE7CFE9FFEF5058
:10099000E00FE76E040EE7CFDBFFDBCF14F014347B
:1009A0000EE2040EDBCF15F0630EE76E1518E8AE0D
:1009B00002D0153403D0E750D880155402E2040E5B
:1009C000DB6AFE0EDB50B50DF3CFE9FFF4CFEAFF93
:1009D000000EE926010EEA22080EE926000EEA22A0
:1009E000EFCF14F0FE0EDB50B50DF3CFE9FFF4CFDF
:1009F000EAFF000EE926010EEA22050EE926000EA6
:100A0000EA22EF50145C10E3FE0EDB50B50DF3CF7D
:100A1000E9FFF4CFEAFF000EE926010EEA22080EF4
:100A2000E926000EEA22EF6A010EDB6A070EF36E7A
:100A3000010EDBCFF4FFF350F45C01E3DAD0040ED7
:100A4000DBCF18F0196A18BE1968030ED890183653
:100A50001936E806FBE1CA0E1826540E1922010EBB
:100A6000DB500F011824F66E000E1920F76E0800F7
:100A7000F550E66EFE0EDB50B50DF3CFE9FFF4CF77
:100A8000EAFF000EE926010EEA227D0EE926000E9D
:100A9000EA22E9CF16F0EACF17F0010EDB50080D7D
:100AA0001650F324146E1750F420156EDF500F010A
:100AB0001424E96E000E1520EA6EE552E750EF6E41
:100AC000FE0EDB50B50DF3CFE9FFF4CFEAFF000EC9
:100AD000E926010EEA227D0EE926000EEA22E9CF80
:100AE0001AF0EACF1BF0010EDB50080D1A50F32468
:100AF000186E1B50F420196EDF501824E96E000E9A
:100B00001920EA6EEF50E66EFE0EDB50B50DF3CF06
:100B1000E9FFF4CFEAFF000EE926010EEA220D0EEE
:100B2000E926000EEA22E9CF16F0EACF17F0010E0F
:100B3000DB50080D1650F324146E1750F420156E78
:100B4000DF501424E96E000E1520EA6EE552E750DE
:100B5000EF6EFE0EDB50B50DF3CFE9FFF4CFEAFFE9
:100B6000000EE926010EEA227D0EE926000EEA2299
:100B7000E9CF1AF0EACF1BF0010EDB50080D1A5036
:100B8000F324186E1B50F420196EDF501824E96E00
:100B9000000E1920EA6EEF50E66EFE0EDB50B50D2A
:100BA000F3CFE9FFF4CFEAFF000EE926010EEA22B7
:100BB0000D0EE926000EEA22E9CF16F0EACF17F073
:100BC000380E1626000E1722010EDB50080D1650A7
:100BD000F324146E1750F420156EDF501424E96EC0
:100BE000000E1520EA6EE552E750EF6E010EDB2A8B
:100BF0001DD7DF2A8FD6FE0EDB50B50DF3CFE9FFF0
:100C0000F4CFEAFF000EE926010EEA22080EE926DB
:100C1000000EEA22EF6A010E00D0146E070EE15CAE
:100C200002E2E16AE552E16E1450E552E7CFD9FFE6
:100C30001200D9CFE6FFE1CFD9FFFE0EDB50B50D94
:100C4000F3CFE9FFF4CFEAFF000EE926010EEA2216
:100C5000060EE926000EEA22FD0EDBCFEFFFFE0EA8
:100C6000DB50B50DF3CFE9FFF4CFEAFF000EE92624
:100C7000010EEA22070EE926000EEA22FD0EDBCF66
:100C8000EFFFE552E7CFD9FF1200D9CFE6FFE1CF62
:100C9000D9FF020EE126FD0EDB50146E156AFE0E22
:100CA000DB50B50DF3CFE9FFF4CFEAFF000EE926E4
:100CB000010EEA22030EE926000EEA221450EE2469
:100CC000E76E1550EE20EA6EE7CFE9FFEF50E00F38
:100CD000E76E010EE7CFDBFFDF6A070EDF5C01E3A3
:100CE000B1D0010EDB50080DF3CF18F0F4CF19F09E
:100CF000CA0E1826540E1922DF500F011824F66E62
:100D0000000E1920F76E0800F550E66EFE0EDB505F
:100D1000B50DF3CFE9FFF4CFEAFF000EE926010E8F
:100D2000EA227D0EE926000EEA22E9CF16F0EACF8C
:100D300017F0DF50080D1650F324146E1750F420EE
:100D4000156EFD0EDB500F011424E96E000E152008
:100D5000EA6EE552E750EF6EDF50080DF3CF18F062
:100D6000F4CF19F07D0E1826010E1922FD0EDB506E
:100D70001824E96E000E1920EA6EEF50E66EFE0EA2
:100D8000DB50B50DF3CFE9FFF4CFEAFF000EE92603
:100D9000010EEA220D0EE926000EEA22E9CF16F036
:100DA000EACF17F0DF50080D1650F324146E1750D9
:100DB000F420156EFD0EDB501424E96E000E152094
:100DC000EA6EE552E750EF6EDF50080DF3CF18F0F2
:100DD000F4CF19F07D0E1826010E1922FD0EDB50FE
:100DE0001824E96E000E1920EA6EEF50E66EFE0E32
:100DF000DB50B50DF3CFE9FFF4CFEAFF000EE92693
:100E0000010EEA220D0EE926000EEA22E9CF16F0C5
:100E1000EACF17F0380E1626000E1722DF50080D05
:100E20001650F324146E1750F420156EFD0EDB508F
:100E30001424E96E000E1520EA6EE552E750EF6EBD
:100E4000DF2A4BD7020EE15C02E2E16AE552E16E75
:100E5000E552E7CFD9FF1200D9CFE6FFE1CFD9FFA6
:100E6000E652FE0EDB50B50DF3CFE9FFF4CFEAFFFB
:100E7000000EE926010EEA22EE52EF6AFE0EDB506A
:100E8000B50DF3CFE9FFF4CFEAFF000EE926010E1E
:100E9000EA22030EE926000EEA22EE6AED6AFE0E51
:100EA000DB50B50DF3CFE9FFF4CFEAFF000EE926E2
:100EB000010EEA22050EE926000EEA22EF6AFE0E76
:100EC000DB50B50DF3CFE9FFF4CFEAFF000EE926C2
:100ED000010EEA22060EE926000EEA22EF6AFE0E55
:100EE000DB50B50DF3CFE9FFF4CFEAFF000EE926A2
:100EF000010EEA22090EE926000EEA22EF6AFE0E32
:100F0000DB50B50DF3CFE9FFF4CFEAFF000EE92681
:100F1000010EEA220A0EE926000EEA22EF6AFE0E10
:100F2000DB50B50DF3CFE9FFF4CFEAFF000EE92661
:100F3000010EEA22070EE926000EEA22EF6AFE0EF3
:100F4000DB50B50DF3CFE9FFF4CFEAFF000EE92641
:100F5000010EEA220B0EE926000EEA22EF6AFE0ECF
:100F6000DB50B50DF3CFE9FFF4CFEAFF000EE92621
:100F7000010EEA220C0EE926000EEA22EF6AFE0EAE
:100F8000DB50B50DF3CFE9FFF4CFEAFF000EE92601
:100F9000010EEA22080EE926000EEA22EF6AFE0E92
:100FA000DB50B50DF3CFE9FFF4CFEAFF000EE926E1
:100FB000010EEA22020EE926000EEA22EF6A380E3E
:100FC000DF6EDFCFE6FFE66AE66AFE0EDB50B50DA8
:100FD000F3CFE9FFF4CFEAFF000EE926010EEA2283
:100FE0007D0EE926000EEA22E9CF14F0EACF15F0D3
:100FF00014C0E6FF15C0E6FF6AEC34F0166E050E6D
:10100000E15E1650DFCFE6FFE66AE66AFE0EDB50D1
:10101000B50DF3CFE9FFF4CFEAFF000EE926010E8C
:10102000EA220D0EE926000EEA22E9CF14F0EACFFB
:1010300015F014C0E6FF15C0E6FF6AEC34F0166E3A
:10104000050EE15E1650DFCFE6FFE66AE66AFE0EA9
:10105000DB50B50DF3CFE9FFF4CFEAFF000EE92630
:10106000010EEA220D0EE926000EEA22E9CF14F065
:10107000EACF15F0380E1426000E152214C0E6FF34
:1010800015C0E6FF6AEC34F0166E050EE15E1650F0
:10109000E552E552E7CFD9FF1200D9CFE6FFE1CF05
:1010A000D9FF050EE126DF6A010EDF5C01E3BBD349
:1010B000DF50B50DF3CFE9FFF4CFEAFF000EE926CC
:1010C000010EEA22060EE926000EEA22EF5021E088
:1010D000DF50B50DF3CFE9FFF4CFEAFF000EE926AC
:1010E000010EEA22070EE926000EEA22EF06DF5083
:1010F000B50DF3CFE9FFF4CFEAFF000EE926010EAC
:10110000EA22070EE926000EEA22EF50000801E26B
:1011100088D3DF50B50DF3CFE9FFF4CFEAFF000E1F
:10112000E926010EEA22060EE926000EEA22EF5019
:10113000E66EDF50B50DF3CFE9FFF4CFEAFF000E06
:10114000E926010EEA22070EE926000EEA22E55200
:10115000E750EF6E9D90DF50B50DF3CFE9FFF4CF70
:10116000EAFF000EE926010EEA22090EE926000E2A
:10117000EA22EF5025E1DF50B50DF3CFE9FFF4CFC0
:10118000EAFF000EE926010EEA220C0EE926000E07
:10119000EA22EF5002E1010E01D0000EE66EDF50B0
:1011A000B50DF3CFE9FFF4CFEAFF000EE926010EFB
:1011B000EA220B0EE926000EEA22E552E750EF6E16
:1011C000DF50B50DF3CFE9FFF4CFEAFF000EE926BB
:1011D000010EEA22090EE926000EEA22EF0402E1DE
:1011E0009D801FD39D80DF50B50DF3CFE9FFF4CF75
:1011F000EAFF000EE926010EEA22060EE926000E9D
:10120000EA22EF5001E1FBD2010EDB6A070EF36E1A
:10121000010EDBCFF4FFF350F45C01E380D2010E4A
:10122000F36E020EF3CFDBFFDF50B50DF3CFE9FF16
:10123000F4CFEAFF000EE926010EEA22020EE926AB
:10124000000EEA22EF50F36E020EDBCFF4FFF350F4
:10125000F45C01E311D1DF50B50DF3CFE9FFF4CF1A
:10126000EAFF000EE926010EEA227D0EE926000EB5
:10127000EA22E9CF16F0EACF17F0010EDB50080D95
:101280001650F324146E1750F420156E020EDB0472
:101290000F011424E96E000E1520EA6EEF9EEF4652
:1012A000070EE66EDF50B50DF3CFE9FFF4CFEAFF8E
:1012B000000EE926010EEA227D0EE926000EEA2242
:1012C000E9CF16F0EACF17F0010EDB50080D1650EB
:1012D000F324146E1750F420156E020EDB50142404
:1012E000E96E000E1520EA6EEF50E66E66EC00F037
:1012F000E552E55201082FE1030EE66EDF50B50D11
:10130000F3CFE9FFF4CFEAFF000EE926010EEA224F
:101310007D0EE926000EEA22E9CF18F0EACF19F097
:10132000010EDB50080D1850F324166E1950F420EE
:10133000176E020EDB0400011624146E000E172037
:10134000156E14C0E6FF15C0E6FF86EC00F0E5520E
:10135000E552E5522ED0030EE66EDF50B50DF3CF09
:10136000E9FFF4CFEAFF000EE926010EEA227D0E26
:10137000E926000EEA22E9CF18F0EACF19F0010EB3
:10138000DB50080D1850F324166E1950F420176E18
:10139000020EDB0400011624146E000E1720156ED9
:1013A00014C0E6FF15C0E6FFA1EC00F0E552E552DF
:1013B000E552DF50B50DF3CFE9FFF4CFEAFF000EA1
:1013C000E926010EEA227D0EE926000EEA22E9CF87
:1013D0001CF0EACF1DF0010EDB50080D1C50F32469
:1013E0001A6E1D50F4201B6E020EDB040F011A242E
:1013F000E96E000E1B20EA6EEF50E66EDF50B50D71
:10140000F3CFE9FFF4CFEAFF000EE926010EEA224E
:101410000D0EE926000EEA22E9CF18F0EACF19F006
:10142000DF50B50DF3CFE9FFF4CFEAFF000EE92658
:10143000010EEA220B0EE926000EEA22EF50380DCB
:101440001850F324166E1950F420176E010EDB505D
:10145000080D1650F324146E1750F420156E020E6A
:10146000DB041424E96E000E1520EA6EE552E75005
:10147000EF6E020EDB2AD8D6DF50B50DF3CFE9FFB1
:10148000F4CFEAFF000EE926010EEA227D0EE926DE
:10149000000EEA22E9CF16F0EACF17F0010EDB507A
:1014A000080D1650F324146E1750F420156E020E1A
:1014B000DB040F011424E96E000E1520EA6EEF9E86
:1014C000EF46DF50B50DF3CFE9FFF4CFEAFF000E92
:1014D000E926010EEA22080EE926000EEA22EF5064
:1014E000146E156ADF50B50DF3CFE9FFF4CFEAFFB4
:1014F000000EE926010EEA22030EE926000EEA227A
:101500001450EE24E76E1550EE20EA6EE7CFE9FFA7
:10151000EF50E00FE76E030EE7CFDBFF000EF36E38
:10152000030EDBCFF4FFF350F45C04E3030EDB5057
:10153000630802E2030EDB6A030EDB50080DF3CFF3
:1015400014F0F4CF15F0CA0E1426540E1522010E15
:10155000DB500F011424F66E000E1520F76E080004
:10156000040EF5CFDBFF070E146EDF50B50DF3CF81
:10157000E9FFF4CFEAFF000EE926010EEA220A0E87
:10158000E926000EEA22EF50145CE66E040EDBCF73
:10159000E6FF66EC00F0E552E55201082FE1030E8C
:1015A000E66EDF50B50DF3CFE9FFF4CFEAFF000E92
:1015B000E926010EEA227D0EE926000EEA22E9CF95
:1015C00018F0EACF19F0010EDB50080D1850F32483
:1015D000166E1950F420176E020EDB04000116245B
:1015E000146E000E1720156E14C0E6FF15C0E6FF3E
:1015F00086EC00F0E552E552E5522ED0030EE66E81
:10160000DF50B50DF3CFE9FFF4CFEAFF000EE92676
:10161000010EEA227D0EE926000EEA22E9CF18F03B
:10162000EACF19F0010EDB50080D1850F324166EA6
:101630001950F420176E020EDB0400011624146EFC
:10164000000E1720156E14C0E6FF15C0E6FFA1ECD2
:1016500000F0E552E552E552DF50B50DF3CFE9FF5A
:10166000F4CFEAFF000EE926010EEA227D0EE926FC
:10167000000EEA22E9CF1CF0EACF1DF0010EDB508C
:10168000080D1C50F3241A6E1D50F4201B6E020E20
:10169000DB040F011A24E96E000E1B20EA6EEF50E6
:1016A000E66EDF50B50DF3CFE9FFF4CFEAFF000E91
:1016B000E926010EEA220D0EE926000EEA22E9CF04
:1016C00018F0EACF19F0DF50B50DF3CFE9FFF4CFF2
:1016D000EAFF000EE926010EEA220B0EE926000EB3
:1016E000EA22EF50380D1850F324166E1950F420EA
:1016F000176E010EDB50080D1650F324146E1750B0
:10170000F420156E020EDB041424E96E000E152081
:10171000EA6EE552E750EF6E010EDB2A77D5DF5017
:10172000B50DF3CFE9FFF4CFEAFF000EE926010E75
:10173000EA220A0EE926000EEA22EF2ADF50B50D52
:10174000F3CFE9FFF4CFEAFF000EE926010EEA220B
:101750000A0EE926000EEA22EFCF14F0050E145C03
:101760004EE3DF50B50DF3CFE9FFF4CFEAFF000EF3
:10177000E926010EEA22080EE926000EEA22EF2AE7
:10178000DF50B50DF3CFE9FFF4CFEAFF000EE926F5
:10179000010EEA22080EE926000EEA22EFCF14F02D
:1017A000DF50B50DF3CFE9FFF4CFEAFF000EE926D5
:1017B000010EEA22050EE926000EEA22EF50145C23
:1017C0000FE3DF50B50DF3CFE9FFF4CFEAFF000ED2
:1017D000E926010EEA22080EE926000EEA22EF6A47
:1017E000DF50B50DF3CFE9FFF4CFEAFF000EE92695
:1017F000010EEA220A0EE926000EEA22EF6A9D9007
:10180000DF50B50DF3CFE9FFF4CFEAFF000EE92674
:10181000010EEA22090EE926000EEA22010EEF6E01
:101820009D80DF2A41D4050EE15C02E2E16AE552C7
:10183000E16EE552E7CFD9FF1200D9CFE6FFE1CF45
:10184000D9FF040EE12689940A0EE66EF8EC36F014
:10185000E552020EDB6A010EF36E020EDBCFF4FFDF
:10186000F350F45C01E390D0030EDB6A020EDB5010
:10187000B50DF3CFE9FFF4CFEAFF000EE926010E24
:10188000EA22020EE926000EEA22EF50F36E030E62
:10189000DBCFF4FFF350F45C74E2020EDB50B50DC5
:1018A000F3CFE9FFF4CFEAFF000EE926010EEA22AA
:1018B0000D0EE926000EEA22E9CF18F0EACF19F062
:1018C000020EDB50B50DF3CFE9FFF4CFEAFF000EB7
:1018D000E926010EEA220C0EE926000EEA22EF505C
:1018E000380D1850F324166E1950F420176E0101AC
:1018F000B551080D1650F324146E1750F420156ED0
:10190000030EDB500F011424E96E000E1520EA6E61
:10191000EFCFDFFF030EDBCFE6FF020EDB50B50D8E
:10192000F3CFE9FFF4CFEAFF000EE926010EEA2229
:10193000EE52EF50E552E724E76E010EE7CFDBFFF2
:10194000400EF36E010EDBCFF4FFF350F45C0AE3BC
:10195000800E146E010EDBCFE7FF1450E726010E58
:10196000E7CFDBFF010EDB50816EDF1C836E8490BE
:101970000A0EE66EF8EC36F0E5528480030EDB2AA0
:1019800075D7020EDB2A67D70101B551060A26E09A
:10199000030A20E0010A1AE0070A14E0010A0EE037
:1019A000030A08E0010A02E0B56B1CD08290829223
:1019B000829418D082808292829414D08290828203
:1019C000829410D08280828282940CD08290829203
:1019D000828408D082808292828404D08290828223
:1019E000828400D08984B52B070EB55D56E3B56BB4
:1019F000020EDB6A010EF36E020EDBCFF4FFF35032
:101A0000F45C4BE2020EDB50B50DF3CFE9FFF4CFEF
:101A1000EAFF000EE926010EEA22090EE926000E71
:101A2000EA22EF0437E1020EDB50B50DF3CFE9FFF8
:101A3000F4CFEAFF000EE926010EEA220C0EE92699
:101A4000000EEA22EF5002E1010E01D0000EE66E18
:101A5000020EDB50B50DF3CFE9FFF4CFEAFF000E25
:101A6000E926010EEA220C0EE926000EEA22E552D2
:101A7000E750EF6E020EDB50B50DF3CFE9FFF4CF68
:101A8000EAFF000EE926010EEA22090EE926000E01
:101A9000EA22EF6A020EDB2AADD7040EE15C02E215
:101AA000E16AE552E16EE552E7CFD9FF1200D9CFE6
:101AB000E6FFE1CFD9FF400EF36EFE0EDBCFF4FF61
:101AC000F350F45C0AE3800E146EFE0EDBCFE7FFEA
:101AD0001450E726FE0EE7CFDBFF8480FE0EDB50BE
:101AE000816EFD0EDB50836E8490640EE66EF8EC22
:0E1AF00036F0E5528480E552E7CFD9FF1200B0
:021AFE00D9CF3E
:101B0000E6FFE1CFD9FF090EE126070EDB6AFB0EE7
:101B1000DBCFE9FFFC0EDBCFEAFF050EEE1801E19B
:101B2000ED5001E017D1020EE76EFD0EDBCFE9FFAD
:101B3000FE0EDBCFEAFFE750E926000EEA22EF5067
:101B4000000EF350DE6EDD6A030EE76EFD0EDBCF96
:101B5000E9FFFE0EDBCFEAFFE750E926000EEA229E
:101B6000EF50DF12DF2A010E01E3DB2A040EE76EDD
:101B7000FD0EDBCFE9FFFE0EDBCFEAFFE750E926E3
:101B8000000EEA22EF50000EF350E66ED950020F1D
:101B9000E96EDACFEAFFE552E750EE6EED6A050E28
:101BA000E76EFD0EDBCFE9FFFE0EDBCFEAFFE7506D
:101BB000E926000EEA22EF50146E156AD950020F82
:101BC000E96EDACFEAFF1450EE121550ED12020E54
:101BD000DBCF14F0030EDBCF15F0010E145C000E0A
:101BE000155801E2B1D0020EDBCF16F0030EDBCFA9
:101BF00017F0D00E165C070E175801E3A5D0010EA2
:101C0000E76EFD0EDBCF14F0FE0EDBCF15F0E750D4
:101C10001426000E1522050E14C0DBFF060E15C09B
:101C2000DBFFFB0EDBCFE9FFFC0EDBCFEAFF010E93
:101C3000EE6EED6A050EDBCFE9FFDB2A060EDBCF89
:101C4000EAFF01E3DB2A010EEF6EFB0EDBCFE9FFBB
:101C5000FC0EDBCFEAFFEE2A000EED22020EDB5077
:101C6000070B15E0020EDBCF14F0030EDBCF15F0EF
:101C70000F0B05E0D89015321432E806FBE1010E97
:101C80001426000E1522040E14C0DBFF12D0080E1D
:101C9000146E156A020EDBCF08F0030EDBCF09F0DD
:101CA00014C00DF015C00EF0A7EC36F0040E08C0FD
:101CB000DBFF050EDBCFE9FFDB2A060EDBCFEAFFF9
:101CC00001E3DB2A040EDBCFEFFFFB0EDBCFE9FFE6
:101CD000FC0EDBCFEAFFEE2A000EED22E66A020ED2
:101CE000DBCFE6FF030EDBCFE6FFDECFE6FFDDCF87
:101CF000E6FF050EDBCFE6FF060EDBCFE6FFC5EC09
:101D00001BF0146E070EE15E1450E76E080EE7CF6D
:101D1000DBFFDB500AE0080EDBCFE6FFB0DBE5526D
:101D2000E76E070EE7CFDBFF0ED0040EDB50146E1C
:101D3000156AFB0EDBCFE9FFFC0EDBCFEAFF145088
:101D4000EE261550ED2205D0030EF36E070EF3CFED
:101D5000DBFF05D0030EF36E070EF3CFDBFF070E9C
:101D6000DB50146E090EE15C03E200D0E16AE5523B
:101D7000E16E1450E552E7CFD9FF1200D9CFE6FF4C
:101D8000E1CFD9FF060EE126040EDB6AFB0EDBCFA6
:101D9000E9FFFC0EDBCFEAFF050EEE1801E1ED5086
:101DA00001E091D0020EE76EFD0EDBCFE9FFFE0EE3
:101DB000DBCFEAFFE750E926000EEA22EF50000EE3
:101DC000F350DE6EDD6A030EE76EFD0EDBCFE9FF3A
:101DD000FE0EDBCFEAFFE750E926000EEA22EF50C5
:101DE000DF12DF2A010E01E3DB2A050EE76EFD0E8E
:101DF000DBCFE9FFFE0EDBCFEAFFE750E926000E5E
:101E0000EA22EF505AE1040EE76EFD0EDBCFE9FF48
:101E1000FE0EDBCFEAFFE750E926000EEA22EF5084
:101E2000FF080EE0040EE76EFD0EDBCFE9FFFE0EAD
:101E3000DBCFEAFFE750E926000EEA22EF503DE152
:101E4000030EDB6A040EE76EFD0EDBCFE9FFFE0E2C
:101E5000DBCFEAFFE750E926000EEA22EF50FF0849
:101E600006E1010EF36E020EF3CFDBFF02D0020E8D
:101E7000DB6A010EE66EE66EE66ADECFE6FFDDCFD8
:101E8000E6FFD950020FE66E000EDA20E66EC5ECD2
:101E90001BF0146E070EE15E1450E76E050EE7CFDF
:101EA000DBFFDB5009E0050EDBCFE6FFE8DAE552A9
:101EB000E76E040EE7CFDBFF05D0030EF36E040ED2
:101EC000F3CFDBFF05D0030EF36E040EF3CFDBFF81
:101ED000040EDB50146E060EE15C03E200D0E16AF2
:101EE000E552E16E1450E552E7CFD9FF1200D9CF89
:101EF000E6FFE1CFD9FF080EE126060EDB6AFB0EF6
:101F0000DBCFE9FFFC0EDBCFEAFF050ED880EE54F5
:101F1000000EED5401E3EDD0020EE76EFD0EDBCFB7
:101F2000E9FFFE0EDBCFEAFFE750E926000EEA22CA
:101F3000EF50000EF350DE6EDD6A030EE76EFD0E0D
:101F4000DBCFE9FFFE0EDBCFEAFFE750E926000E0C
:101F5000EA22EF50DF12DF2A010E01E3DB2A040E32
:101F6000E76EFD0EDBCFE9FFFE0EDBCFEAFFE750A9
:101F7000E926000EEA22EF50000EF350E66ED9502B
:101F8000020FE96EDACFEAFFE552E750EE6EED6A36
:101F9000050EE76EFD0EDBCFE9FFFE0EDBCFEAFF9D
:101FA000E750E926000EEA22EF50146E156AD95068
:101FB000020FE96EDACFEAFF1450EE121550ED125F
:101FC000060EE76EFD0EDBCFE9FFFE0EDBCFEAFF6C
:101FD000E750E926000EEA22040EEFCFDBFF020EE7
:101FE000DB50070B15E0020EDBCF14F0030EDBCF46
:101FF00015F00F0B05E0D89015321432E806FBE11E
:10200000010E1426000E1522050E14C0DBFF12D09F
:10201000080E146E156A020EDBCF08F0030EDBCF3C
:1020200009F014C00DF015C00EF0A7EC36F0050E47
:1020300008C0DBFF020EDBCF14F0030EDBCF15F080
:10204000010E145C000E15584EE3D950020FE96ED4
:10205000DACFEAFFB00ED880EE54070EED5443E31A
:10206000040EDB50F36E050EDB50F35C3CE1010E19
:10207000E66E020EDBCFE6FF030EDBCFE6FFDECF20
:10208000E6FFDDCFE6FF070EE76EFD0EDBCF14F0B7
:10209000FE0EDBCF15F0E7501426000E152214C0FB
:1020A000E6FF15C0E6FFC5EC1BF0166E070EE15EFD
:1020B0001650E76E070EE7CFDBFFDB500AE0070E96
:1020C000DBCFE6FFDCD9E552E76E060EE7CFDBFF9C
:1020D00009D0FB0EDBCFE9FFFC0EDBCFEAFF060EDB
:1020E000EE6EED6A05D0030EF36E060EF3CFDBFF46
:1020F00005D0030EF36E060EF3CFDBFFDB50146E3C
:10210000080EE15C03E200D0E16AE552E16E145092
:10211000E552E7CFD9FF1200D9CFE6FFE1CFD9FFD3
:102120000A0EE126F90EDB50E66ED950080FE96E73
:10213000DACFEAFFE552E750EE6EED6AFA0EDB50B9
:10214000080801E2F1D0080E146E156AFB0EDBCF11
:1021500008F0FC0EDBCF09F014C00DF015C00EF036
:10216000A7EC36F0040E08C0DBFF050E09C0DBFF4C
:10217000FB0EDBCF16F0FC0EDBCF17F0080E086E5F
:10218000096A040EDBCF0DF0050EDBCF0EF007EC75
:1021900036F00650165C146E07501758156E060E72
:1021A00014C0DBFF070E15C0DBFF060EDBCF14F0FB
:1021B000D950080FE96EDACFEAFF1450E85005E075
:1021C000D890EE36ED36E806FBE1FA0EDB50166EDF
:1021D000010E165204E0E846FE0B1606FCE1FF0F66
:1021E000146E156A14BE1568020E14C0DBFF030ED0
:1021F00015C0DBFFFB0EDBCF16F0FC0EDBCF17F0BC
:10220000080E086E096A040EDBCF0DF0050EDBCF59
:102210000EF007EC36F00650165C146E0750175897
:10222000156ED950020FE96EDACFEAFF1450E8506C
:1022300005E0D890EE36ED36E806FBE1040EDBCF84
:1022400014F0050EDBCF15F0FD0EDB501424E96E03
:10225000FE0EDB501520EA6EEF50DE6EDD6A010ED9
:10226000E76E040EDBCF14F0050EDBCF15F0E75060
:102270001426000E1522FD0EDB501424E96EFE0E0E
:10228000DB501520EA6EEF50000EF350DF12020E05
:10229000DB1C186E030EDB1C196EDE501814166E54
:1022A000DD501914176E080EDB501610146E090E4F
:1022B000DB501710156E14C0DEFF15C0DDFFDECF3A
:1022C00016F0DDCF17F0FF0E1616000E1716040ECF
:1022D000DBCF14F0050EDBCF15F0FD0EDB50142420
:1022E000E96EFE0EDB501520EA6E16C0EFFFDECF62
:1022F00016F0DDCF17F017C016F0176A010EE76E63
:10230000040EDBCF14F0050EDBCF15F0E7501426DA
:10231000000E1522FD0EDB501424E96EFE0EDB507C
:102320001520EA6E16C0EFFF0A0EE15C02E2E16AD8
:10233000E552E16EE552E7CFD9FF1200D9CFE6FFB3
:10234000E1CFD9FF080EE126146E156AFB0EDBCF34
:1023500008F0FC0EDBCF09F014C00DF015C00EF034
:10236000A7EC36F0040E08C0DBFF050E09C0DBFF4A
:10237000FB0EDBCF16F0FC0EDBCF17F0080E086E5D
:10238000096A040EDBCF0DF0050EDBCF0EF007EC73
:1023900036F00650165C146E07501758156E060E70
:1023A00014C0DBFF070E15C0DBFFFA0EDB50166E04
:1023B000010E165204E0E846FE0B1606FCE1FF0F84
:1023C000146E156A14BE1568020E14C0DBFF030EEE
:1023D00015C0DBFF040EDBCF14F0050EDBCF15F0CC
:1023E000FD0EDB501424E96EFE0EDB501520EA6E64
:1023F000EF50DE6EDD6A010EE76E040EDBCF14F0E7
:10240000050EDBCF15F0E7501426000E1522FD0E49
:10241000DB501424E96EFE0EDB501520EA6EEF50FF
:10242000000EF350DF12060EDBCF14F0D9CFE9FF18
:10243000DACFEAFF14500F0B06E0EC52D890ED32E1
:10244000EF32E806FAE1020EDBCF14F0030EDBCF29
:1024500015F0D9CFE9FFDACFEAFF1450EE16155088
:10246000ED16DF50146E080EE15C03E200D0E16A65
:10247000E552E16E1450E552E7CFD9FF1200D9CFF3
:10248000E6FFE1CFD9FFE652FE0EDB50070A0CE073
:10249000060A07E0010A03E0040EDF6E08D0DF6AD7
:1024A00006D0020EDF6E03D0060EDF6E00D0DF50C6
:1024B00000D0E552E552E7CFD9FF1200D9CFE6FFB1
:1024C000E1CFD9FFE652DF6A020EE76EF90EDBCFED
:1024D00014F0FA0EDBCF15F0E7501426000E15228B
:1024E000200E145C000E15585AE20101D66BD76B12
:1024F000D6C1E9FFD7C1EAFFD62B000ED723B60E0F
:10250000E926010EEA22FE0EDBCFEFFFFD0EDB50C7
:1025100002E0FF0E01D0000EE66ED6C1E9FFD7C182
:10252000EAFFD62B000ED723B60EE926010EEA22CB
:10253000E552E750EF6ED950F90FE96EFF0EDA2041
:10254000EA6E000ED880EE54000EED5427E2F90E2C
:10255000DBCFE6FFFA0EDBCFE6FFFB0EDBCFE6FFBD
:10256000FC0EDBCFE6FFB60ED625146E010ED7218A
:10257000156E14C0E6FF15C0E6FF3FEC34F0166E92
:10258000060EE15E1650F90EDBCF08F0FA0EDBCF37
:1025900009F008500101D6270950D72302D0040EB4
:1025A000DF6EDF5000D0E552E552E7CFD9FF1200D1
:1025B000D9CFE6FFE1CFD9FFD6C1E6FFD7C1E6FF0D
:1025C000B60EE66E010EE66E020EE76EFD0EDBCF76
:1025D00014F0FE0EDBCF15F0E7501426000E152286
:1025E00014C0E6FF15C0E6FF3FEC34F0166E060E91
:1025F000E15E1650020E0101156AD625146ED75100
:102600001522FB0EDBCFE9FFFC0EDBCFEAFF14C087
:10261000EEFF15C0EDFF000E00D0E552E7CFD9FF69
:102620001200D9CFE6FFE1CFD9FF0A0EE126060E50
:10263000DB6AFB0EDBCFE9FFFC0EDBCFEAFF050E0A
:10264000EE1801E1ED5001E00AD1020EE76EFD0E39
:10265000DBCFE9FFFE0EDBCFEAFFE750E926000EF5
:10266000EA22EF50DE6EDD6AD9CFE9FFDACFEAFF6A
:10267000EE50ED6EEF6A030EE76EFD0EDBCFE9FF65
:10268000FE0EDBCFEAFFE750E926000EEA22EF500C
:10269000DF12DF2A010E01E3DB2A040EE76EFD0ED6
:1026A000DBCFE9FFFE0EDBCFEAFFE750E926000EA5
:1026B000EA22EF50E66ED950020FE96EDACFEAFF58
:1026C000E552E750EE6EED6AD950020FE96EDACFAF
:1026D000EAFFEE50ED6EEF6A050EE76EFD0EDBCF02
:1026E000E9FFFE0EDBCFEAFFE750E926000EEA2203
:1026F000EF50146E156AD950020FE96EDACFEAFF77
:102700001450EE121550ED12020EDBCF14F0030E32
:10271000DBCF15F0010E145C000E155801E299D0C4
:10272000020EDBCF16F0030EDBCF17F07D0E165C2A
:10273000000E175801E38DD0010EE76EFD0EDBCFC2
:1027400014F0FE0EDBCF15F0E7501426000E152214
:10275000040E14C0DBFF050E15C0DBFFFB0EDBCF44
:10276000E9FFFC0EDBCFEAFF010EEE6EED6A040E10
:10277000DBCFE9FFDB2A050EDBCFEAFF01E3DB2A33
:10278000040EEF6EFB0EDBCFE9FFFC0EDBCFEAFFA2
:10279000EE2A000EED22020E086E096ADBCF0DF064
:1027A000030EDBCF0EF007EC36F00650E66E040E9B
:1027B000DBCFE9FFDB2A050EDBCFEAFF01E3DB2AF3
:1027C000E552E750EF6EFB0EDBCFE9FFFC0EDBCFEF
:1027D000EAFFEE2A000EED22020EDBCFE6FF030E2B
:1027E000DBCFE6FFDECFE6FFDDCFE6FF040EDBCF7B
:1027F000E6FF050EDBCFE6FF0FEC1BF0146E060EB6
:10280000E15E1450E76E070EE7CFDBFFDB500AE016
:10281000070EDBCFE6FF33DEE552E76E060EE7CFAD
:10282000DBFF16D0020EDBCF14F0030EDBCF15F06A
:10283000010ED89014361536E806FBE1FB0EDBCF0F
:10284000E9FFFC0EDBCFEAFF1450EE261550ED2217
:1028500005D0030EF36E060EF3CFDBFF05D0030E9B
:10286000F36E060EF3CFDBFF060EDB50146E0A0E7E
:10287000E15C03E200D0E16AE552E16E1450E552FA
:10288000E7CFD9FF1200D9CFE6FFE1CFD9FF040E81
:10289000E126020EDB6AFB0EDBCFE9FFFC0EDBCF8D
:1028A000EAFF050EEE1801E1ED5050E1020EE76E71
:1028B000FD0EDBCFE9FFFE0EDBCFEAFFE750E92696
:1028C000000EEA22EF50000EF350DE6EDD6A030EBA
:1028D000E76EFD0EDBCFE9FFFE0EDBCFEAFFE75030
:1028E000E926000EEA22EF50DF12DF2A010E01E393
:1028F000DB2AE66EE66EE66ADECFE6FFDDCFE6FFB8
:10290000040EE76EFD0EDBCF14F0FE0EDBCF15F0EC
:10291000E7501426000E152214C0E6FF15C0E6FF8E
:1029200024EC1BF0166E070EE15E1650E76E030EE8
:10293000E7CFDBFFDB5009E0030EDBCFE6FF9FDDD7
:10294000E552E76E020EE7CFDBFF05D0030EF36E14
:10295000020EF3CFDBFF020EDB50146E040EE15CBF
:1029600003E200D0E16AE552E16E1450E552E7CF90
:10297000D9FF1200D9CFE6FFE1CFD9FF070EE1263C
:10298000050EDB6AFB0EDBCFE9FFFC0EDBCFEAFFB7
:10299000EECF14F0EFCF15F0060E145C000E1558B4
:1029A00001E2D6D0020EE76EFD0EDBCFE9FFFE0E90
:1029B000DBCFEAFFE750E926000EEA22EF50DE6E99
:1029C000DD6AD9CFE9FFDACFEAFFEE50ED6EEF6AAC
:1029D000030EE76EFD0EDBCFE9FFFE0EDBCFEAFF55
:1029E000E750E926000EEA22EF50DF12DF2A010E3F
:1029F00001E3DB2A040EE76EFD0EDBCFE9FFFE0EDE
:102A0000DBCFEAFFE750E926000EEA22EF50E66E40
:102A1000D950020FE96EDACFEAFFE552E750EE6EC9
:102A2000ED6AD950020FE96EDACFEAFFEE50ED6E93
:102A3000EF6A050EE76EFD0EDBCFE9FFFE0EDBCF82
:102A4000EAFFE750E926000EEA22EF50146E156AFD
:102A5000D950020FE96EDACFEAFF1450EE1215508A
:102A6000ED12060EE76EFD0EDBCFE9FFFE0EDBCFAB
:102A7000EAFFE750E926000EEA22040EEFCFDBFF63
:102A8000020EDBCF14F0030EDBCF15F0010E145C49
:102A9000000E155857E3D950020FE96EDACFEAFF5E
:102AA000780ED880EE54000EED544CE3020E086E02
:102AB000096ADBCF0DF0030EDBCF0EF007EC36F02A
:102AC0000650F36E040EDB50F35C3CE1010EE66E43
:102AD000020EDBCFE6FF030EDBCFE6FFDECFE6FF25
:102AE000DDCFE6FF070EE76EFD0EDBCF14F0FE0E26
:102AF000DBCF15F0E7501426000E152214C0E6FFB8
:102B000015C0E6FF24EC1BF0166E070EE15E1650B2
:102B1000E76E060EE7CFDBFFDB500AE0060EDBCFE9
:102B2000E6FFADDCE552E76E050EE7CFDBFF09D02F
:102B3000FB0EDBCFE9FFFC0EDBCFEAFF060EEE6EED
:102B4000ED6A05D0030EF36E050EF3CFDBFF05D063
:102B5000030EF36E050EF3CFDBFF050EDB50146E94
:102B6000070EE15C03E200D0E16AE552E16E145029
:102B7000E552E7CFD9FF1200D9CFE6FFE1CFD9FF69
:102B8000080EE126060EDB6AFB0EDBCFE9FFFC0E2A
:102B9000DBCFEAFF050EEE1801E1ED5001E000D1B8
:102BA000020EE76EFD0EDBCFE9FFFE0EDBCFEAFF84
:102BB000E750E926000EEA22EF50000EF350DE6ED9
:102BC000DD6A030EE76EFD0EDBCFE9FFFE0EDBCF05
:102BD000EAFFE750E926000EEA22EF50DF12DF2A73
:102BE000010E01E3DB2A040EE76EFD0EDBCFE9FFE9
:102BF000FE0EDBCFEAFFE750E926000EEA22EF5097
:102C0000000EF350E66ED950020FE96EDACFEAFFFC
:102C1000E552E750EE6EED6A050EE76EFD0EDBCF76
:102C2000E9FFFE0EDBCFEAFFE750E926000EEA22BD
:102C3000EF50E66ED950020FE96EDACFEAFFE552A7
:102C4000E750EE6EED6A020EDBCF14F0030EDBCF21
:102C500015F0010E145C000E155801E29BD0D950FE
:102C6000020FE96EDACFEAFF7D0ED880EE54000E37
:102C7000ED5401E28FD0010EE76EFD0EDBCF14F0B4
:102C8000FE0EDBCF15F0E7501426000E1522040EC1
:102C900014C0DBFF050E15C0DBFFFB0EDBCFE9FF29
:102CA000FC0EDBCFEAFF010EEE6EED6A040EDBCF09
:102CB000E9FFDB2A050EDBCFEAFF01E3DB2A030E87
:102CC000EF6EFB0EDBCFE9FFFC0EDBCFEAFFEE2A57
:102CD000000EED22020E086E096ADBCF0DF0030E26
:102CE000DBCF0EF007EC36F00650E66E040EDBCFBD
:102CF000E9FFDB2A050EDBCFEAFF01E3DB2AE55221
:102D0000E750EF6EFB0EDBCFE9FFFC0EDBCFEAFFF7
:102D1000EE2A000EED22E66A020EDBCFE6FF030E7E
:102D2000DBCFE6FFDECFE6FFDDCFE6FF040EDBCF35
:102D3000E6FF050EDBCFE6FF24EC1BF0146E070E5A
:102D4000E15E1450E76E070EE7CFDBFFDB500BE0D0
:102D5000070EDBCFE6FF3FEC12F0E552E76E060E02
:102D6000E7CFDBFF16D0020EDBCF14F0030EDBCF74
:102D700015F0010ED89014361536E806FBE1FB0E6F
:102D8000DBCFE9FFFC0EDBCFEAFF1450EE26155037
:102D9000ED2205D0030EF36E060EF3CFDBFF05D058
:102DA000030EF36E060EF3CFDBFF060EDB50146E40
:102DB000080EE15C03E200D0E16AE552E16E1450D6
:102DC000E552E7CFD9FF1200D9CFE6FFE1CFD9FF17
:102DD0000D0EE1260B0EDB6AFB0EDBCFE9FFFC0ECE
:102DE000DBCFEAFFEECF14F0EFCF15F00A0E145C44
:102DF000000E155801E2D7D1020EE76EFD0EDBCFB3
:102E0000E9FFFE0EDBCFEAFFE750E926000EEA22DB
:102E1000EF50000EF350DE6EDD6A030EE76EFD0E1E
:102E2000DBCFE9FFFE0EDBCFEAFFE750E926000E1D
:102E3000EA22EF50DF12DF2A010E01E3DB2A040E43
:102E4000E76EFD0EDBCFE9FFFE0EDBCFEAFFE750BA
:102E5000E926000EEA22EF50000EF350E66ED9503C
:102E6000020FE96EDACFEAFFE552E750EE6EED6A47
:102E7000050EE76EFD0EDBCFE9FFFE0EDBCFEAFFAE
:102E8000E750E926000EEA22EF50146E156AD95079
:102E9000020FE96EDACFEAFF1450EE121550ED1270
:102EA000060EE76EFD0EDBCFE9FFFE0EDBCFEAFF7D
:102EB000E750E926000EEA22EF50000EF350E66ECE
:102EC000D950040FE96EDACFEAFFE552E750EE6E13
:102ED000ED6A070EE76EFD0EDBCFE9FFFE0EDBCFDE
:102EE000EAFFE750E926000EEA22EF50146E156A59
:102EF000D950040FE96EDACFEAFF1450EE121550E4
:102F0000ED12040EDB2A050E01E3DB2A080EE76E44
:102F1000FD0EDBCFE9FFFE0EDBCFEAFFE750E9262F
:102F2000000EEA22EF50000EF350E66ED950060F65
:102F3000E96EDACFEAFFE552E750EE6EED6A090E70
:102F4000E76EFD0EDBCFE9FFFE0EDBCFEAFFE750B9
:102F5000E926000EEA22EF50146E156AD950060FCA
:102F6000E96EDACFEAFF1450EE121550ED120A0E98
:102F7000E76EFD0EDBCFE9FFFE0EDBCFEAFFE75089
:102F8000E926000EEA22080EEFCFDBFF020EDBCFB0
:102F900014F0030EDBCF15F0010E145C000E155873
:102FA00001E2FCD0D950020FE96EDACFEAFF7D0EC4
:102FB000D880EE54000EED5401E2F0D0060EDBCFC7
:102FC00016F0070EDBCF17F0010E165C000E175837
:102FD00001E2E4D0D950060FE96EDACFEAFF790EAC
:102FE000D880EE54000EED5401E2D8D0020E086EE7
:102FF000096A060EDBCF0DF0070EDBCF0EF007ECF3
:1030000036F006C018F007C019F0080EDB501A6E33
:103010001B6A1A50181802E11B50191801E0BED0A3
:10302000010EE66E060EDBCFE6FF070EDBCFE6FFF6
:10303000040EDBCFE6FF050EDBCFE6FF0B0EE76EDF
:10304000FD0EDBCF14F0FE0EDBCF15F0E75014269B
:10305000000E152214C0E6FF15C0E6FF24EC1BF09D
:10306000166E070EE15E1650E76E0C0EE7CFDBFF23
:10307000DB5001E085D0010EE76EFD0EDBCF14F0D2
:10308000FE0EDBCF15F0E7501426000E1522090EB8
:1030900014C0DBFF0A0E15C0DBFFFB0EDBCFE9FF20
:1030A000FC0EDBCFEAFF010EEE6EED6A090EDBCF00
:1030B000E9FFDB2A0A0EDBCFEAFF01E3DB2A170E6A
:1030C000EF6EFB0EDBCFE9FFFC0EDBCFEAFFEE2A53
:1030D000000EED22020E086E096ADBCF0DF0030E22
:1030E000DBCF0EF007EC36F00650E66E090EDBCFB4
:1030F000E9FFDB2A0A0EDBCFEAFF01E3DB2AE55218
:10310000E750EF6EFB0EDBCFE9FFFC0EDBCFEAFFF3
:10311000EE2A000EED22E66A020EDBCFE6FF030E7A
:10312000DBCFE6FFDECFE6FFDDCFE6FF090EDBCF2C
:10313000E6FF0A0EDBCFE6FF24EC1BF0146E070E51
:10314000E15E1450E76E0C0EE7CFDBFFDB5018E1B9
:10315000020E086E096ADBCF0DF0030EDBCF0EF016
:1031600007EC36F006C014F007C015F0FB0EDBCFFD
:10317000E9FFFC0EDBCFEAFF1450EE261550ED22DE
:103180000C0EDB500AE00C0EDBCFE6FF3FEC12F03A
:10319000E552E76E0B0EE7CFDBFF05D0030EF36EB3
:1031A0000B0EF3CFDBFF0B0EDB50146E0D0EE15C4C
:1031B00003E200D0E16AE552E16E1450E552E7CF38
:1031C000D9FF1200D9CFE6FFE1CFD9FF090EE126E2
:1031D000070EDB6AFB0EDBCFE9FFFC0EDBCFEAFF5D
:1031E000050EEE1801E1ED5001E017D1020EE76E79
:1031F000FD0EDBCFE9FFFE0EDBCFEAFFE750E9264D
:10320000000EEA22EF50000EF350DE6EDD6A030E70
:10321000E76EFD0EDBCFE9FFFE0EDBCFEAFFE750E6
:10322000E926000EEA22EF50DF12DF2A010E01E349
:10323000DB2A040EE76EFD0EDBCFE9FFFE0EDBCFCF
:10324000EAFFE750E926000EEA22EF50000EF350A5
:10325000E66ED950020FE96EDACFEAFFE552E75089
:10326000EE6EED6A050EE76EFD0EDBCFE9FFFE0E9A
:10327000DBCFEAFFE750E926000EEA22EF50146E9A
:10328000156AD950020FE96EDACFEAFF1450EE1238
:103290001550ED12020EDBCF14F0030EDBCF15F04C
:1032A000010E145C000E155801E2B1D0020EDBCF06
:1032B00016F0030EDBCF17F0D00E165C070E175872
:1032C00001E3A5D0010EE76EFD0EDBCF14F0FE0E7C
:1032D000DBCF15F0E7501426000E1522050E14C0A2
:1032E000DBFF060E15C0DBFFFB0EDBCFE9FFFC0E9C
:1032F000DBCFEAFF010EEE6EED6A050EDBCFE9FFD4
:10330000DB2A060EDBCFEAFF01E3DB2A020EEF6EBB
:10331000FB0EDBCFE9FFFC0EDBCFEAFFEE2A000E4F
:10332000ED22020EDB50070B15E0020EDBCF14F08E
:10333000030EDBCF15F00F0B05E0D89015321432D9
:10334000E806FBE1010E1426000E1522040E14C03F
:10335000DBFF12D0080E146E156A020EDBCF08F0E8
:10336000030EDBCF09F014C00DF015C00EF0A7EC72
:1033700036F0040E08C0DBFF050EDBCFE9FFDB2AC9
:10338000060EDBCFEAFF01E3DB2A040EDBCFEFFF03
:10339000FB0EDBCFE9FFFC0EDBCFEAFFEE2A000ECF
:1033A000ED22020EDBCFE6FF030EDBCFE6FFDECF22
:1033B000E6FFDDCFE6FF050EDBCFE6FF060EDBCF37
:1033C000E6FFCFEC1BF0146E060EE15E1450E76EC4
:1033D000080EE7CFDBFFDB500BE0080EDBCFE6FF8C
:1033E0003FEC12F0E552E76E070EE7CFDBFF0ED0A1
:1033F000040EDB50146E156AFB0EDBCFE9FFFC0EEA
:10340000DBCFEAFF1450EE261550ED2205D0030E57
:10341000F36E070EF3CFDBFF05D0030EF36E070E3E
:10342000F3CFDBFF070EDB50146E090EE15C03E205
:1034300000D0E16AE552E16E1450E552E7CFD9FFC2
:02344000120078
:0E344200D9CFE6FFE1CFD9FFE65205011A6BA4
:103450001AC51BF5E552E552E7CFD9FF1200D9CFC7
:10346000E6FFE1CFD9FF080EE126A3D9E66AB5EC65
:103470002FF0E55201082FE105011F052CE10C2B6F
:10348000000E0D2313DBB9DB67EC1EF05DEC1FF0C3
:1034900030EC20F0160EE96E050EEA6EEE500501D6
:1034A000125DEE501359EE501459EE50155903E2C7
:1034B000010E1A6F0ED0160EE96E050EEA6E12514D
:1034C000EE5C1351EE581451EE581551EE5801E2CE
:1034D0001A6B1F6B0BD0E66AB5EC2FF0E5520009B2
:1034E00005E105011F5102E1010E1F6F05011A05DB
:1034F00043E11A511B5D40E00A0EE66E1F0EE66EB8
:10350000E8EC35F0E552E552010EDE6EDD6ADFCF04
:1035100014F0DF06010EDBCF15F001E2DB061450DC
:10352000151006E00A0EE66EBDEC36F0E552EFD758
:10353000080EE66E1E0EE66EE8EC35F0E552E5523A
:10354000010EF36E020EF3CFDBFF030EDB6A020EF9
:10355000DBCF14F0DB06030EDBCF15F001E2DB0658
:103560001450151006E00A0EE66EBDEC36F0E5527A
:10357000EED71AC51BF549D01A5147E11A511B5D08
:1035800044E0080EE66E1F0EE66EE8EC35F0E552FC
:10359000E552010EF36E040EF3CFDBFF050EDB6A7E
:1035A000040EDBCF14F0DB06050EDBCF15F001E2D5
:1035B000DB061450151006E00A0EE66EBDEC36F080
:1035C000E552EED70A0EE66E1E0EE66EE8EC35F01A
:1035D000E552E552010EF36E060EF3CFDBFF070E48
:1035E000DB6A060EDBCF14F0DB06070EDBCF15F02F
:1035F00001E2DB061450151006E00A0EE66EBDEC83
:1036000036F0E552EED71AC51BF5080EE15C02E272
:10361000E16AE552E16EE552E7CFD9FF1200D9CF5A
:10362000E6FFE1CFD9FF030EE126DF6ADF50146E1B
:10363000030EE15C03E200D0E16AE552E16E145052
:10364000E552E7CFD9FF1200D9CFE6FFE1CFD9FF8E
:103650000E0EE126FB0EDB50DF6E020E086E096ACD
:10366000F90EDBCF0DF0FA0EDBCF0EF007EC36F0E3
:10367000010E06C0DBFF020EDB6A030EDB6AD950C7
:10368000040FE96EDACFEAFF490EEE6E440EEE6EDD
:10369000450EEE6E4F0EEE6E4E0EEE6E490EEE6E57
:1036A000430EEE6E530EEE6E200EEE6EEE6AF80EC8
:1036B000DB5027E0010A01E059D0010EDB50000881
:1036C0001CE2FD0EDBCFE9FFDB2AFE0EDBCFEAFFBB
:1036D00001E3DB2AEF50E66E030EDBCFF3FFDB2ABC
:1036E000F350EA6A000FE96E050EEA22E552E75050
:1036F000EF6EDF2A010EDB06E0D70501010E1C6F1D
:1037000035D0010EDB50000830E2FD0EDBCFE9FFC3
:10371000DB2AFE0EDBCFEAFF01E3DB2A410EEF6E70
:10372000FD0EDBCFE9FFDB2AFE0EDBCFEAFF01E374
:10373000DB2A420EEF6EFD0EDBCFE9FFDB2AFE0E29
:10374000DBCFEAFF01E3DB2A430EEF6EFD0EDBCF9A
:10375000E9FFDB2AFE0EDBCFEAFF01E3DB2A440EA2
:10376000EF6EDF2A010EDB06CCD700D0020EDB5055
:10377000146E0E0EE15C03E200D0E16AE552E16EE8
:103780001450E552E7CFD9FF1200D9CFE6FFE1CFC1
:10379000D9FF010E00D0E552E7CFD9FF1200D9CFF3
:1037A000E6FFE1CFD9FF010E00D0E552E7CFD9FF08
:1037B0001200D9CFE6FFE1CFD9FF120EE126DF6A72
:1037C000020EDB6AD950080FE96EDACFEAFF200E4D
:1037D000EE6EEE6EEE6EEE6EEE6EEE6A05011C059E
:1037E00001E05AD100C5DFFFDF50820A01E10AD1B2
:1037F000030A01E1C2D0010A01E04CD1010EDB6AEB
:10380000050EF36E010EDBCFF4FFF350F45C1CE207
:10381000010EDB28EA6A000FE96E050EEA22EF507E
:10382000E66ED950080F146EDACF15F0010EDB509A
:103830000F011424E96E000E1520EA6EE552E750E0
:10384000EF6E010EDB2ADCD7D950080F146EDACFE9
:1038500015F0010EDB500F011424E96E000E152047
:10386000EA6E200EEF6EE66A2CEC07F0E5520501D9
:10387000206B060E216FD950080FE66E000EDA207D
:10388000E66E84EC34F0E552E552F3CF24F5050101
:10389000D950080F226FDACF23F5256B200EE66E84
:1038A000050EE66EE66AF0EC01F0E552E552E552EF
:1038B000010EDB6A020EDB6A050EF36E010EDBCF32
:1038C000F4FFF350F45C2AE2010EDB28EA6A000FF1
:1038D000E96E050EEA22EF502D0802E1010EDB2A07
:1038E000010EDB28EA6A000FE96E050EEA22EF50AE
:1038F000E66ED950030F146EDACF15F0020EDB50CE
:103900000F011424E96E000E1520EA6EE552E7500F
:10391000EF6E010EDB2A020EDB2ACED7080EDB6A21
:10392000D950050FE66E000EDA20E66ECAEC33F0D1
:10393000E552E552F3CF0AF5F4CF0BF5050EDB6A3D
:10394000D950030FE66E000EDA20E66ECAEC33F0B3
:10395000E552E552F3CF14F0F4CF15F03C0E15020A
:10396000F3CF15F01402F3CF14F0F45015261450D1
:1039700005010A2715500B238DD0DE52090EDD6E8E
:10398000020EDB6A010EDB500C082FE3020EDB286F
:10399000EA6A000FE96E050EEA22EF50D00FE66EDC
:1039A000010EDBCFE6FFE8EC35F0E552E552010E03
:1039B000F36E0E0EF3CFDBFF0F0EDB6A0E0EDBCFC6
:1039C00014F0DB060F0EDBCF15F001E2DB0614501E
:1039D000151006E00A0EE66EBDEC36F0E552EED7A5
:1039E000010EDB2A020EDB2ACDD7010EE66E050E94
:1039F000E66ECAEC33F0E552E552F3CF0EF5F4CFA4
:103A00000FF548D0DE52060EDD6E020EDB6A010EA7
:103A1000DB50070832E3030E146E020EDB28145C41
:103A2000EA6A000FE96E050EEA22EF50D00FE66E4B
:103A3000010EDBCFE6FFE8EC35F0E552E552010E72
:103A4000F36E100EF3CFDBFF110EDB6A100EDBCF2F
:103A500014F0DB06110EDBCF15F001E2DB0614508B
:103A6000151006E00A0EE66EBDEC36F0E552EED714
:103A7000010EDB2A020EDB2ACAD7010EE66E050E06
:103A8000E66ECAEC33F0E552E552F3CF10F5F4CF11
:103A900011F500D005011C6B120EE15C02E2E16A37
:103AA000E552E16EE552E7CFD9FF1200D9CFE6FF2C
:103AB000E1CFD9FF0A0EE126DF6A010EDB6A060EAE
:103AC0000CC5DBFF070E0DC5DBFF060EDBCF16F0C6
:103AD000070EDBCF17F00A0E0D6E0E6A16C008F047
:103AE00017C009F0A7EC36F004C016F005C017F0B7
:103AF000300E1626000E1722D950020F146EDACFA0
:103B000015F0DF50DF2A0F011424E96E000E152096
:103B1000EA6E16C0EFFFD950060FE96EDACFEAFF62
:103B20000A0E0D6E0E6AEECF08F0EDCF09F0A7EC8D
:103B300036F008C0EEFF09C0EDFFEE50ED10C5E114
:103B4000040EDF5C13E2040EDF5C10E2D950020FBA
:103B5000146EDACF15F0DF500F011424E96E000E59
:103B60001520EA6E300EEF6EDF2AEDD70D0EDF6EF8
:103B7000DF50100838E3D950020F146EDACF15F079
:103B8000010EDBCFE6FF030EE552D880E7540F01AC
:103B90001424E96E000E1520EA6EEF50D00FE66E89
:103BA000DFCFE6FFE8EC35F0E552E552010EF36EAB
:103BB000080EF3CFDBFF090EDB6A080EDBCF14F033
:103BC000DB06090EDBCF15F001E2DB061450151001
:103BD00006E00A0EE66EBDEC36F0E552EED7DF2ABF
:103BE000010EDB2AC5D70A0EE15C02E2E16AE5526A
:103BF000E16EE552E7CFD9FF1200D9CFE6FFE1CF62
:103C0000D9FF080EE126000E0EC5DFFF010E0FC51D
:103C1000DBFF020EDB6A030EDB6A040E10C5DBFF5E
:103C2000050E11C5DBFF060EDB6A070EDB6AD9CF76
:103C3000E9FFDACFEAFF100E0B6E270E0C6E0D6A4D
:103C40000E6AEECF06F0EECF07F0EECF08F0EFCF22
:103C500009F026EC35F005C0EDFF04C0EDFF03C010
:103C6000EDFF02C0EFFFD9CFE9FFDACFEAFFEECFD9
:103C700014F0EECF15F0EECF16F0EFCF17F014C022
:103C800006F015C007F016C008F017C009F0040EC2
:103C9000DBCF0BF0050EDBCF0CF0060EDBCF0DF00B
:103CA000070EDBCF0EF084EC35F006C012F507C02E
:103CB00013F508C014F509C015F5080EE15C02E221
:103CC000E16AE552E16EE552E7CFD9FF1200D9CFA4
:103CD000E6FFE1CFD9FF0C0EE126000E0CC5DFFF99
:103CE000010E0DC5DBFF020EDB6A030EDB6A080E58
:103CF0000AC5DBFF090E0BC5DBFF0A0EDB6A0B0EE4
:103D0000DB6AD9CFE9FFDACFEAFF100E0B6E270E80
:103D10000C6E0D6A0E6AEECF06F0EECF07F0EECF16
:103D200008F0EFCF09F026EC35F005C0EDFF04C038
:103D3000EDFF03C0EDFF02C0EFFF4ED8040E1DC51E
:103D4000DBFF050E1EC5DBFF060EDB6A070EDB6A16
:103D5000040EDBCF18F0050EDBCF19F0060EDBCF1B
:103D60001AF0070EDBCF1BF0D950080FE96EDACF3F
:103D7000EAFFEE50185C146EEE501958156EEE50B6
:103D80001A58166EEE501B58176E14C00BF015C063
:103D90000CF016C00DF017C00EF0DFCF06F0010ECC
:103DA000DBCF07F0020EDBCF08F0030EDBCF09F00C
:103DB00084EC35F006C016F507C017F508C018F5F5
:103DC00009C019F50C0EE15C02E2E16AE552E16E10
:103DD000E552E7CFD9FF1200D9CFE6FFE1CFD9FFF7
:103DE0000B0EE126DF6AD950010FE96EDACFEAFF48
:103DF000EE6AEE6AEE6AEE6AD950050FE66E000EC4
:103E0000DA20E66EE4EC21F0E552E552060EDB50D6
:103E10000F0B300FE76E030EE7CFDBFF060EDB5014
:103E2000F00BE8380F0B300FE76E020EE7CFDBFF29
:103E3000070EDB500F0B300FE76E010EE7CFDBFFF5
:103E4000070EDB50F00BE8380F0B300FDF6E050E5E
:103E5000DB6AD950020FE66E000EDA20E66ECAEC7D
:103E600033F0E552E552F3CF1DF5F4CF1EF5020E07
:103E7000DB6AD9CFE6FFDACFE6FFCAEC33F0E552D2
:103E8000E552F3CF14F0F4CF15F03C0E1502F3CF4A
:103E900015F01402F3CF14F0F45015261450050158
:103EA0001D2715501E230B0EE15C02E2E16AE5526C
:103EB000E16EE552E7CFD9FF1200D9CFE6FFE1CF9F
:103EC000D9FF130EE126DF6A010EDB6A0D0E12C563
:103ED000DBFF0E0E13C5DBFF0F0E14C5DBFF100E4C
:103EE00015C5DBFF0D0EDBCF16F00E0EDBCF17F086
:103EF0000F0EDBCF18F0100EDBCF19F00A0E0B6E91
:103F00000C6A0D6A0E6A16C006F017C007F018C0DA
:103F100008F019C009F084EC35F002C016F003C0B7
:103F200017F004C018F005C019F0300E1626000E68
:103F3000172218221922D950030F146EDACF15F068
:103F4000DF50DF2A0F011424E96E000E1520EA6EFF
:103F500016C0EFFFD9500D0FE96EDACFEAFF0A0E57
:103F60000B6E0C6A0D6A0E6AEECF06F0EECF07F00C
:103F7000EECF08F0EFCF09F084EC35F009C0EDFF8B
:103F800008C0EDFF07C0EDFF06C0EFFFD880000EB0
:103F9000EE54000EEE54000EEE54000EEE54A2E36A
:103FA000050EDF5C13E2050EDF5C10E2D950030F53
:103FB000146EDACF15F0DF500F011424E96E000EF5
:103FC0001520EA6E300EEF6EDF2AEDD7110EF36E7C
:103FD000020EF3CFDBFF020EDB50150837E3D9509A
:103FE000030F146EDACF15F0010EDB50DF5CFF0F0C
:103FF0000F011424E96E000E1520EA6EEF50D00F69
:10400000E66E020EDBCFE6FFE8EC35F0E552E55256
:10401000010EF36E110EF3CFDBFF120EDB6A110EF1
:10402000DBCF14F0DB06120EDBCF15F001E2DB066E
:104030001450151006E00A0EE66EBDEC36F0E5529F
:10404000EED7020EDB2A010EDB2AC5D7130EE15C88
:1040500002E2E16AE552E16EE552E7CFD9FF1200D4
:10406000D9CFE6FFE1CFD9FF130EE126DF6A010EBB
:10407000DB6A030EDB6AD950040FE96EDACFEAFF80
:10408000EE6AEE6AEE6AEE6AEE6AEE6AEE6AEE6A70
:10409000EE6A0D0E16C5DBFF0E0E17C5DBFF0F0E09
:1040A00018C5DBFF100E19C5DBFF0D0EDBCF16F0B8
:1040B0000E0EDBCF17F00F0EDBCF18F0100EDBCF9C
:1040C00019F00A0E0B6E0C6A0D6A0E6A16C006F025
:1040D00017C007F018C008F019C009F084EC35F0DB
:1040E00002C016F003C017F004C018F005C019F0A4
:1040F000300E1626000E172218221922D950030F4F
:10410000146EDACF15F0DF50DF2A0F011424E96EA8
:10411000000E1520EA6E16C0EFFFD9500D0FE96EA4
:10412000DACFEAFF0A0E0B6E0C6A0D6A0E6AEECF4A
:1041300006F0EECF07F0EECF08F0EFCF09F084ECF9
:1041400035F009C0EDFF08C0EDFF07C0EDFF06C068
:10415000EFFFD880000EEE54000EEE54000EEE5429
:10416000000EEE54A2E3050EDF5C13E2050EDF5CE9
:1041700010E2D950030F146EDACF15F0DF500F01A3
:104180001424E96E000E1520EA6E300EEF6EDF2A61
:10419000EDD7160EF36E020EF3CFDBFF020EDB50EF
:1041A0001A0837E3D950030F146EDACF15F0010E59
:1041B000DB50DF5CFF0F0F011424E96E000E1520A9
:1041C000EA6EEF50D00FE66E020EDBCFE6FFE8ECB2
:1041D00035F0E552E552010EF36E110EF3CFDBFF21
:1041E000120EDB6A110EDBCF14F0DB06120EDBCFF2
:1041F00015F001E2DB061450151006E00A0EE66E1B
:10420000BDEC36F0E552EED7020EDB2A010EDB2ABA
:10421000C5D7130EE15C02E2E16AE552E16EE552B8
:10422000E7CFD9FF1200D9CFE6FFE1CFD9FF100EBB
:10423000E126010EDB6A05012D2BD950020FE66E37
:10424000000EDA20E66EE4EC21F0E552E552640E51
:1042500005012D5D32E3DF6A070EDF5C2CE2D950E9
:10426000020F146EDACF15F0DF500F011424E96E3F
:10427000000E1520EA6EEF50E66E79EC36F0E5524E
:10428000140EF36E0C0EF3CFDBFF0D0EDB6A0C0E7B
:10429000DBCF14F0DB060D0EDBCF15F001E2DB0601
:1042A0001450151006E00A0EE66EBDEC36F0E5522D
:1042B000EED7DF2AD1D705012D6B030EDB500F0B94
:1042C000300FE76E080EE7CFDBFF030EDB50F00B7D
:1042D000E8380F0B300FE76E090EE7CFDBFF040E57
:1042E000DB500F0B300FE76E0A0EE7CFDBFF040E3B
:1042F000DB50F00BE8380F0B300FE76E0B0EE7CFFB
:10430000DBFF0D0EDF6EDF50100838E3D950080FC9
:10431000146EDACF15F0010EDBCFE6FF030EE55287
:10432000D880E7540F011424E96E000E1520EA6EC0
:10433000EF50D00FE66EDFCFE6FFE8EC35F0E55248
:10434000E552010EF36E0E0EF3CFDBFF0F0EDB6AAC
:104350000E0EDBCF14F0DB060F0EDBCF15F001E203
:10436000DB061450151006E00A0EE66EBDEC36F0C2
:10437000E552EED7DF2A010EDB2AC5D7100EE15C2D
:1043800002E2E16AE552E16EE552E7CFD9FF1200A1
:10439000D9CFE6FFE1CFD9FFFE0EDB04E96EEA6A72
:1043A000D890E936EA36D30EE926030EEA22EECF9C
:1043B00014F0EFCF15F014C0F3FF15C0F4FF00D0D8
:1043C000E552E7CFD9FF1200D9CFE6FFE1CFD9FF01
:1043D000B3EC31F0D00EE66EF7EC31F0E552E66A60
:1043E000F7EC31F0E552B3EC31F0D10EE66EF7ECBC
:1043F00031F0E552010EE66E3EEC32F0E552E66E2B
:10440000FD0EDBCFE9FFFE0EDBCFEAFFE552E75002
:10441000EF6E010EE66E3EEC32F0E552E66E010EF6
:10442000E76EFD0EDBCFE9FFFE0EDBCFEAFFE750C4
:10443000E926000EEA22E552E750EF6E010EE66E25
:104440003EEC32F0E552E66E020EE76EFD0EDBCF7B
:10445000E9FFFE0EDBCFEAFFE750E926000EEA2275
:10446000E552E750EF6E010EE66E3EEC32F0E5529B
:10447000E66E030EE76EFD0EDBCFE9FFFE0EDBCF2F
:10448000EAFFE750E926000EEA22E552E750EF6E18
:10449000010EE66E3EEC32F0E552E66E040EE76E7B
:1044A000FD0EDBCFE9FFFE0EDBCFEAFFE750E9268A
:1044B000000EEA22E552E750EF6E010EE66E3EEC8A
:1044C00032F0E552E66E050EE76EFD0EDBCFE9FF3A
:1044D000FE0EDBCFEAFFE750E926000EEA22E552A6
:1044E000E750EF6EE66A3EEC32F0E552E66E060EFD
:1044F000E76EFD0EDBCFE9FFFE0EDBCFEAFFE750F4
:10450000E926000EEA22E552E750EF6EC9EC31F0E1
:10451000E552E7CFD9FF1200D9CFE6FFE1CFD9FFAF
:10452000B3EC31F0D00EE66EF7EC31F0E552E66A0E
:10453000F7EC31F0E552FD0EDBCFE9FFFE0EDBCFED
:10454000EAFFEF50E66EF7EC31F0E552010EE76E50
:10455000FD0EDBCFE9FFFE0EDBCFEAFFE750E926D9
:10456000000EEA22EF50E66EF7EC31F0E552020E53
:10457000E76EFD0EDBCFE9FFFE0EDBCFEAFFE75073
:10458000E926000EEA22EF50E66EF7EC31F0E55234
:10459000030EE76EFD0EDBCFE9FFFE0EDBCFEAFF79
:1045A000E750E926000EEA22EF50E66EF7EC31F014
:1045B000E552040EE76EFD0EDBCFE9FFFE0EDBCF0A
:1045C000EAFFE750E926000EEA22EF50E66EF7EC2C
:1045D00031F0E552050EE76EFD0EDBCFE9FFFE0E72
:1045E000DBCFEAFFE750E926000EEA22EF50E66E45
:1045F000F7EC31F0E552060EE76EFD0EDBCFE9FF7A
:10460000FE0EDBCFEAFFE750E926000EEA22EF506C
:10461000E66EF7EC31F0E552C9EC31F0E552E7CF48
:10462000D9FF1200D9CFE6FFE1CFD9FFFD0EDB04A1
:104630001DE1FE0EDB504009E76EFE0EE7CFDBFF0B
:10464000FC0EDB0408E1FE0EDB502009E76EFE0ED7
:10465000E7CFDBFF0AD0FC0EDB5007E1FE0EDB509C
:10466000DF0BE76EFE0EE7CFDBFF0AD0FD0EDB505F
:1046700007E1FE0EDB50BF0BE76EFE0EE7CFDBFF60
:10468000FE0EDB5000D0E552E7CFD9FF1200D9CFA4
:10469000E6FFE1CFD9FFFD0EDBCFE9FFFE0EDBCF5A
:1046A000EAFFEE52EF50E66EFB0EDBCFE9FFFC0EA9
:1046B000DBCFEAFFEE52E552E750EF6EFD0EDBCFA7
:1046C000E9FFFE0EDBCFEAFFEF50E66EFB0EDBCF1D
:1046D000E9FFFC0EDBCFEAFFE552E750EF6EFD0E7F
:1046E000DBCFE9FFFE0EDBCFEAFF020EE926000E6C
:1046F000EA22EFCF14F00C0E145C42E3FD0EDBCF88
:10470000E9FFFE0EDBCFEAFF020EE926000EEA22E9
:10471000EF50F40FE66EFB0EDBCFE9FFFC0EDBCFB4
:10472000EAFF020EE926000EEA22E552E750EF6E9C
:10473000FB0EDBCFE9FFFC0EDBCFEAFF070EE9261D
:10474000000EEA22010EEF6E0C0E146EFD0EDBCF92
:10475000E9FFFE0EDBCFEAFF020EE926000EEA2299
:10476000EF50145C0CE1FB0EDBCFE9FFFC0EDBCF5E
:10477000EAFF020EE926000EEA220C0EEF6E4BD085
:10478000FD0EDBCFE9FFFE0EDBCFEAFF020EE926CE
:10479000000EEA22EFCF14F00C0E145C3CE2FD0E8A
:1047A000DBCFE9FFFE0EDBCFEAFF020EE926000EAB
:1047B000EA22EF50E66EFB0EDBCFE9FFFC0EDBCF0B
:1047C000EAFF020EE926000EEA22E552E750EF6EFC
:1047D000FB0EDBCFE9FFFC0EDBCFEAFF070EE9267D
:1047E000000EEA22EF6AFD0EDBCFE9FFFE0EDBCF03
:1047F000EAFF020EE926000EEA22EF500CE1FB0E62
:10480000DBCFE9FFFC0EDBCFEAFF020EE926000E4C
:10481000EA220C0EEF6EE552E7CFD9FF1200D9CF96
:10482000E6FFE1CFD9FFFD0EDBCFE9FFFE0EDBCFC8
:10483000EAFFEE52EF50E66EFB0EDBCFE9FFFC0E17
:10484000DBCFEAFFEE52E552E750EF6EFD0EDBCF15
:10485000E9FFFE0EDBCFEAFFEF50E66EFB0EDBCF8B
:10486000E9FFFC0EDBCFEAFFE552E750EF6EFD0EED
:10487000DBCFE9FFFE0EDBCFEAFF070EE926000ED5
:10488000EA22EF0436E1FD0EDBCFE9FFFE0EDBCFBF
:10489000EAFF020EE926000EEA22EF500C0FE66E48
:1048A000FB0EDBCFE9FFFC0EDBCFEAFF020EE926B1
:1048B000000EEA22E552E750EF6E0C0E146EFD0E6C
:1048C000DBCFE9FFFE0EDBCFEAFF020EE926000E8A
:1048D000EA22EF50145C0CE1FB0EDBCFE9FFFC0E8B
:1048E000DBCFEAFF020EE926000EEA220C0EEF6E85
:1048F0003FD0FD0EDBCFE9FFFE0EDBCFEAFF070E58
:10490000E926000EEA22EF5033E1FD0EDBCFE9FF8E
:10491000FE0EDBCFEAFF020EE926000EEA22EF5080
:10492000E66EFB0EDBCFE9FFFC0EDBCFEAFF020EEB
:10493000E926000EEA22E552E750EF6E0C0E146EE7
:10494000FD0EDBCFE9FFFE0EDBCFEAFF020EE9260C
:10495000000EEA22EF50145C0BE1FB0EDBCFE9FF07
:10496000FC0EDBCFEAFF020EE926000EEA22EF6A18
:10497000E552E7CFD9FF1200D9CFE6FFE1CFD9FF4B
:10498000E652DF6AFD0EDB040DE1FE0EDB500C0F7C
:10499000DF6E0C0E146EFE0EDB50145C02E10C0E8A
:1049A000DF6E16D0FD0EDB500BE1FE0EDB50DF6E2E
:1049B0000C0E146EFE0EDB50145C01E1DF6A08D0B1
:1049C000AA0E146EFD0EDB50145C02E1AA0EDF6E1F
:1049D000DF5000D0E552E552E7CFD9FF1200D9CF22
:1049E000E6FFE1CFD9FFB3EC31F0D00EE66EF7EC85
:1049F00031F0E552E66AF7EC31F0E552050EE76E6C
:104A0000FD0EDBCFE9FFFE0EDBCFEAFFE750E92624
:104A1000000EEA22EF500F0B146E040EE76EFD0E2F
:104A2000DBCFE9FFFE0EDBCFEAFFE750E926000E01
:104A3000EA22EF500F0B100DF3501410E66EF7EC56
:104A400031F0E552030EE76EFD0EDBCFE9FFFE0EFF
:104A5000DBCFEAFFE750E926000EEA22EF500F0B0A
:104A6000146E020EE76EFD0EDBCFE9FFFE0EDBCF0C
:104A7000EAFFE750E926000EEA22EF500F0B100D77
:104A8000F3501410E66EF7EC31F0E552010EE76ECC
:104A9000FD0EDBCFE9FFFE0EDBCFEAFFE750E92694
:104AA000000EEA22EF500F0B146EFD0EDBCFE9FF74
:104AB000FE0EDBCFEAFFEF500F0B100DF35014107A
:104AC000E66EF7EC31F0E552C9EC31F0E552E7CF94
:104AD000D9FF1200D9CFE6FFE1CFD9FFB3EC31F017
:104AE000D00EE66EF7EC31F0E552040EE66EF7EC10
:104AF00031F0E552010EE76EFD0EDBCFE9FFFE0E51
:104B0000DBCFEAFFE750E926000EEA22EF500F0B59
:104B1000146EFD0EDBCFE9FFFE0EDBCFEAFFEF5098
:104B20000F0B100DF3501410E66EF7EC31F0E55258
:104B3000030EE76EFD0EDBCFE9FFFE0EDBCFEAFFD3
:104B4000E750E926000EEA22EF500F0B146E020E1A
:104B5000E76EFD0EDBCFE9FFFE0EDBCFEAFFE7508D
:104B6000E926000EEA22EF500F0B100DF35014103F
:104B7000E66EF7EC31F0E552050EE76EFD0EDBCF89
:104B8000E9FFFE0EDBCFEAFFE750E926000EEA223E
:104B9000EF500F0B146E040EE76EFD0EDBCFE9FF36
:104BA000FE0EDBCFEAFFE750E926000EEA22EF50C7
:104BB0000F0B100DF3501410E66EF7EC31F0E552C8
:104BC000C9EC31F0E552E7CFD9FF1200D9CFE6FFAB
:104BD000E1CFD9FFB3EC31F0D00EE66EF7EC31F057
:104BE000E552030EE66EF7EC31F0E552FE0EDBCF38
:104BF000E6FFF7EC31F0E552C9EC31F0E552E7CFD2
:104C0000D9FF1200D9CFE6FFE1CFD9FFE652E66A1D
:104C1000D00EE66E8FEC32F0E552E552DF6E7F0E7D
:104C2000DF14DF6EDFCFE6FFE66AD00EE66EB1EC92
:104C300032F0E552E552E552900EE66E070EE66E52
:104C4000D00EE66EB1EC32F0E552E552E552E55297
:104C5000E552E7CFD9FF1200080EE66E040EE66EAD
:104C6000E4EC21F0E552E5520301F9510401085D3D
:104C700004E008C4F9F3010E076F120004010B51A0
:104C800000D0120004010D5100D0120004010C519B
:104C900000D0120004010A5100D012000401095191
:104CA00000D012000401085100D012000401095183
:104CB000166E176A0A513C0DF3501624146EF45008
:104CC0001720156E14C0F3FF15C0F4FF00D01200BA
:104CD00004010B51E96EEA6AD890E936EA36D30E40
:104CE000E926030EEA22EECF14F0EFCF15F014C040
:104CF000F3FF15C0F4FF00D0120004010D51E96E5E
:104D0000EA6AD890E936EA36E10EE926030EEA228D
:104D1000EECF14F0EFCF15F014C0F3FF15C0F4FF81
:044D200000D01200AD
:0C4D2400D9CFE6FFE1CFD9FFE652DF6AED
:104D3000FE0EDB5013E0010EF36EFE0EDBCFF4FF30
:104D4000F350F45C0BE3FE0EDB50146E156A153461
:104D500004E21450F708000E155403E2020EDF6E51
:104D600061D0FE0EDBCF45F3D950FA0FE96EFF0E8E
:104D7000DA20EA6EEECFE6FFEECFE6FFEECFE6FFFB
:104D8000EFCFE6FFE2EC2CF0E552E552E552E552BA
:104D9000D950FA0FE96EFF0EDA20EA6ED880000EC5
:104DA000EE544B0EEE54000EEE54000EEE540CE298
:104DB00003015C0E016F440E026F036B046BEE0E79
:104DC000056F020E066F2ED0D950FA0FE96EFF0E56
:104DD000DA20EA6E800EEE1806E1250EEE1803E1E9
:104DE000EE5001E1EE5008E10301300E016F8E0E2E
:104DF000026F036B046B16D0D950FA0FE96EFF0EE9
:104E0000DA20EA6EEE5006E14B0EEE1803E1EE50AA
:104E100001E1EE5007E10301180E016F470E026F2A
:104E2000036B046B00C310F3DF5000D0E552E55272
:104E3000E7CFD9FF1200D9CFE6FFE1CFD9FF020EAD
:104E4000E126010EDB6A06EC2FF006C00BF307C06B
:104E50000CF308C00DF309C00EF3070EE96E030E44
:104E6000EA6EEE5003010B1909E1EE500C1906E150
:104E7000EE500D1903E1EE500E1900E113E0005160
:104E8000105D08E1000506E10F070F5103E1006B1B
:104E9000080E9DD10BC307F30CC308F30DC309F330
:104EA0000EC30AF30051030A6AE0010A59E0030A3B
:104EB00031E0010A01E089D1A3EC2DF0000929E0DD
:104EC0000301436B446B320EE66EE66A000EE66E3B
:104ED000E66A110EE66E030EE66E3FEC34F0146ED9
:104EE000060EE15E1450C0EC2DF0E66E030143C3E4
:104EF000E9FF44C3EAFF432B000E4423110EE926C9
:104F0000030EEA22E552E750EF6E010E006F050E28
:104F10000F6F5BD1A3EC2DF0000913E0C0EC2DF076
:104F2000E66E030143C3E9FF44C3EAFF432B000ECF
:104F30004423110EE926030EEA22E552E750EF6EF4
:104F40000ED09CDADF6E080EDF24146E156A0301A2
:104F50001450435D1550445902E3020E006F35D1E1
:104F600011C32EF5455105012E5D02E02E5104E1DD
:104F70000301030E006F02D00301006B26D143C36F
:104F8000E6FF44C3E6FF110EE66E030EE66E2BD974
:104F9000E552E552E552E552F3CF33F5F4CF34F55F
:104FA0000501335134110DE143C330F544C331F5EC
:104FB000010E305F000E315B020E305F000E315B80
:104FC00002D0306B316B12C32FF5010E326F2F51AF
:104FD000020A01E1AED00D0A01E19AD00A0A01E10C
:104FE00086D0040A73E0160A60E0110A4DE0160A42
:104FF0003AE0130A27E0070A14E0150A01E0AAD0F4
:10500000300EE66E050EE66E110EE66E030EE66ECF
:10501000D8EC12F0E552E552E552E5520501326F47
:1050200099D0300EE66E050EE66E110EE66E030E9A
:10503000E66E11EC13F0E552E552E552E55205013A
:10504000326F88D0300EE66E050EE66E110EE66EFB
:10505000030EE66EBCEC15F0E552E552E552E55262
:105060000501326F77D0300EE66E050EE66E110E3A
:10507000E66E030EE66EBAEC14F0E552E552E55228
:10508000E5520501326F66D0300EE66E050EE66E13
:10509000110EE66E030EE66E43EC14F0E552E55297
:1050A000E552E5520501326F55D0300EE66E050E21
:1050B000E66E110EE66E030EE66EE4EC16F0E552B7
:1050C000E552E552E5520501326F44D0300EE66EEE
:1050D000050EE66E110EE66E030EE66E7FEC0DF029
:1050E000E552E552E552E5520501326F33D0300EFC
:1050F000E66E050EE66E110EE66E030EE66EBEEC73
:105100000EF0E552E552E552E5520501326F22D02C
:10511000300EE66E050EE66E110EE66E030EE66EBE
:1051200077EC0FF0E552E552E552E5520501326F9A
:1051300011D0300EE66E050EE66E110EE66E030E11
:10514000E66EE2EC18F0E552E552E552E552050153
:10515000326F00D02E5136E0325121E0010E306F17
:10516000316B800E2F11E66E30C5E9FF31C5EAFFC5
:10517000302B000E3123110EE926030EEA22E552F0
:10518000E750EF6E30C5E9FF31C5EAFF302B000E66
:105190003123110EE926030EEA2232C5EFFF30C596
:1051A000E6FF31C5E6FF110EE66E030EE66E45C35F
:1051B000E6FF97D8146E050EE15E1450E76E010EFF
:1051C000E7CFDBFF0301006B00D000C310F3146EC8
:1051D000020EE15C02E2E16AE552E16E1450E55232
:1051E000E7CFD9FF1200D9CFE6FFE1CFD9FF060EF6
:1051F000E126DF68010EDB68020EDB6A030EDB6A64
:10520000FB0EDBCF14F0DB06FC0EDBCF15F001E26A
:10521000DB061450151038E0010EDBCFE6FFFD0E63
:10522000DBCFE9FFDB2AFE0EDBCFEAFF01E3DB2A5F
:10523000EF50E552E718E66ED950040FE96EDACF69
:10524000EAFFE552E750EE6EED6A040EDBCFF6FFA3
:10525000050EDBCFF7FF940EF626650EF722080049
:10526000F550DF18E76E010EE7CFDBFF040EDBCF52
:10527000F6FF050EDBCFF7FF940EF626660EF7223B
:105280000800F550DF6EBCD7DFCF14F014C015F066
:10529000146A020E14C0DBFF030E15C0DBFF010E03
:1052A000DB50146E156AD950020FE96EDACFEAFFAF
:1052B0001450EE121550ED12020EDBCF14F0030E57
:1052C000DBCF15F014C0F3FF15C0F4FF060EE15C50
:1052D00003E200D0E16AE552E16EE552E7CFD9FF83
:1052E0001200D9CFE6FFE1CFD9FF050EE126DF6A34
:1052F000040EDB6A9D9ADB50EA6A110FE96E030E19
:10530000EA22FE0EDBCFEFFF010EF36E040EF3CFA9
:10531000DBFFFA0EDBCF14F0FB0EDBCF15F014062B
:10532000000E155A040EDBCFE7FF1450E726040EDB
:10533000E7CFDBFFDBCFE6FFE66A110EE66E030E7A
:10534000E66E51DFE552E552E552E552DE52F3CF0B
:10535000DEFFF4CFDDFFDD52FF0EE76E010EDBCF87
:1053600014F0020EDBCF15F0E7501416156A040E88
:10537000DBCFF3FFDB2AF350EA6A110FE96E030E6D
:10538000EA2214C0EFFF010EDBCF14F0020EDBCFD8
:1053900015F015C014F0156A040EDBCFF3FFDB2AFD
:1053A000F350EA6A110FE96E030EEA2214C0EFFF10
:1053B000030EDB6A040EDB50F36E030EDBCFF4FF4B
:1053C000F350F45C0FE2030EDB50EA6A110FE96E52
:1053D000030EEA22EF50E66E46EC2DF0E552030E86
:1053E000DB2AE8D762EC2DF001C314F002C315F0FC
:1053F00003C316F004C317F00A0E0B6E0C6A0D6A95
:105400000E6A14C006F015C007F016C008F017C0E9
:1054100009F084EC35F006C014F007C015F008C0A0
:1054200016F009C017F00A0E0B6E0C6A0D6A0E6AB0
:1054300014C006F015C007F016C008F017C009F038
:1054400026EC35F002C014F003C015F004C016F0CD
:1054500005C017F01450E66EF8EC36F0E5529D8A60
:10546000DF50146E050EE15C03E200D0E16AE55204
:10547000E16E1450E552E7CFD9FF1200D9CFE6FF15
:10548000E1CFD9FF020EE126010EDB6A12C3DFFF76
:10549000DF5006080BE20301060ED8804355000ECC
:1054A000445504E2010E17C3DBFFDB2A010EDB507B
:1054B000146E020EE15C03E200D0E16AE552E16E97
:0A54C0001450E552E7CFD9FF1200A7
:0654CA00000000000000DC
:1054D000000020202020000020005050500000003C
:1054E00000005050F850F85050002078A07028F07C
:1054F0002000C0C81020409818006090A040A890DC
:105500006800602040000000000010204040402063
:10551000100040201010102040000020A870A8208B
:105520000000002020F820200000000000003010C3
:1055300020000000007C000000000000000000606F
:1055400060000008102040800000708898A8C8887B
:1055500070002060A0202020F800708808102040F3
:10556000F800F81020100888700010305090F810E3
:105570001000F880F0080808F000304080F08888BB
:105580007000F808102040404000708888708888BB
:1055900070007088887808106000006060006060AB
:1055A00000000060600060204000081020402010D3
:1055B00008000000F800F80000004020100810204B
:1055C0004000708808102000200070880868A8A893
:1055D0007000205088F888888800F08888F08888D3
:1055E000F0007088808080887000E09088888890C3
:1055F000E000F88080F08080F800F88080F0808003
:105600008000708880B888887800888888F88888C2
:105610008800F82020202020F8003810101010906A
:1056200060008890A0C0A0908800808080808080EA
:10563000F80088D8A8A8888888008888C8A898888A
:1056400088007088888888887000F08888F080805A
:10565000800070888888A8906800F08888F0A09002
:105660008800788080700808F000F8202020202032
:105670002000888888888888700088888888885072
:105680002000888888A8A8A85000888850205088C2
:1056900088008888885020202000F808102040804A
:1056A000F80070404040404070008850F820F820DA
:1056B00020007010101010107000205088000000A2
:1056C0000000000000000000F80040201000000072
:1056D000000000007008788878008080B0C8888852
:1056E000F000000070808088700008086898888842
:1056F000780000007088F8807000304840E040403A
:10570000400000788888780870008080B0C8888859
:105710008800200060202020700008000808084849
:105720003000404048506050480060202020202039
:1057300070000000D0A8A88888000000B0C8888841
:10574000880000007088888870000000F088F08071
:10575000800000006898780808000000B0C88080C9
:105760008000000070807008F0004040E040404839
:105770003000000088888898680000008888885079
:10578000200000008888A8A8500000008850205001
:10579000880000008888780870000000F810204019
:1057A000F800102020402020100020202020202061
:1057B00020002010100810102000002010F81020E9
:1057C0000000002040F84020000030484830000031
:1057D00000003048483000000000081838783818B9
:1057E00008000404040404040400FFFFFFFFFFFF9B
:1057F000FF0000040400040400000080800080809A
:1058000000008080808080808000C0C0C0C0C0C098
:10581000C000E0E0E0E0E0E0E000F0F0F0F0F0F008
:10582000F000F8F8F8F8F8F8F800FCFCFCFCFCFCD8
:10583000FC00FDFDFDFDFDFDFD002070F8707070A9
:1058400070003048848484483000844830303048C8
:1058500084000070487040400000003040701060CC
:105860000000004040404078000000008005C00477
:10587000E003F002F8010000080418033802780180
:02588000F8002E
:0E588200DACFE4FFE2CFDAFFE9CFE4FFEACFAE
:10589000E4FFF6CFE4FFF7CFE4FFF5CFE4FFF3CF6B
:1058A000E4FFF4CFE4FFFACFE4FF00EE00F0140EC3
:1058B000E80403E3EECFE4FFFBD700EE14F00A0E9A
:1058C000E80403E3EECFE4FFFBD7E652D9CFE6FFCF
:1058D000E1CFD9FFE652C9EC35F0DF6E03019451F8
:1058E000942BEA6A970FE96E030EEA22DFCFEFFFEF
:1058F0003C0E945D01E3946B962B9E9AE552E55223
:10590000E7CFD9FFE55200EE1DF00A0EE80403E3ED
:10591000E5CFEDFFFBD700EE13F0140EE80403E330
:10592000E5CFEDFFFBD7E5CFFAFFE5CFF4FFE5CFFD
:10593000F3FFE5CFF5FFE5CFF7FFE5CFF6FFE5CFC6
:10594000EAFFE5CFE9FFE5CFDAFF1100DACFE4FFA8
:10595000E2CFDAFFE9CFE4FFEACFE4FFE652D9CFA6
:10596000E6FFE1CFD9FFE6520301575104E1ACA2B3
:10597000FED7AC9A1BD05651EA6A580FE96E030E57
:10598000EA22EFCFDFFFDF50AD6E562B3C0E565DA7
:1059900001E3566B000EE76E5719E8AE02D057359B
:1059A00003D0E750D880575501E25707E552E5523A
:1059B000E7CFD9FFE552E5CFEAFFE5CFE9FFE5CF35
:1059C000DAFF1100D9CFE6FFE1CFD9FFE6527C0E16
:1059D000DF6ED950FB0FE96EFF0EDA20EA6EEE2A79
:1059E000000EEE22EE22EE22D950FB0FE96EFF0EE2
:1059F000DA20EA6E040EE76ED890EF36010EEB3631
:105A0000020EEB36030EEB36E706F6E1146A5A0E89
:105A1000156E620E166E020E176E14C006F015C0DB
:105A200007F016C008F017C009F0FB0EDBCF0BF033
:105A3000FC0EDBCF0CF0FD0EDBCF0DF0FE0EDBCF4E
:105A40000EF084EC35F0FB0E06C0DBFFFC0E07C049
:105A5000DBFFFD0E08C0DBFFFE0E09C0DBFFFB0E07
:105A6000DBCFE6FFFC0EDBCFE6FFDFCFE6FFE1ECAE
:105A700034F0E552E552E552AC8AAC9E9D8A9F888F
:105A80009F8AE552E552E7CFD9FF1200D9CFE6FF52
:105A9000E1CFD9FFACA2FED703015551552BEA6ADD
:105AA000580FE96E030EEA22FE0EDBCFEFFF572BF5
:105AB0003C0E555D01E3556B010E00D0E552E7CF7A
:105AC000D9FF1200D9CFE6FFE1CFD9FF020EE126C0
